{
	"data": {
		"bytecode": {
			"linkReferences": {},
			"object": "608060405234801561001057600080fd5b50612503806100206000396000f3fe60806040526004361061007b5760003560e01c8063851bd33c1161004e578063851bd33c1461011e578063a4e773d61461013a578063bfca9c371461017a578063c2c3bfa9146101ba5761007b565b806307d81fb8146100805780630b1cea451461009c5780632977f78a146100b857806330cf1769146100e1575b600080fd5b61009a600480360381019061009591906117f1565b6101fd565b005b6100b660048036038101906100b1919061184d565b6103bd565b005b3480156100c457600080fd5b506100df60048036038101906100da91906117a8565b61057e565b005b3480156100ed57600080fd5b50610108600480360381019061010391906117a8565b6106f2565b6040516101159190611d16565b60405180910390f35b610138600480360381019061013391906117f1565b61078f565b005b34801561014657600080fd5b50610161600480360381019061015c91906117f1565b610f22565b6040516101719493929190611af9565b60405180910390f35b34801561018657600080fd5b506101a1600480360381019061019c91906117a8565b61114f565b6040516101b19493929190611af9565b60405180910390f35b3480156101c657600080fd5b506101e160048036038101906101dc91906117a8565b611294565b6040516101f49796959493929190611b60565b60405180910390f35b60008260405161020d9190611ab1565b908152602001604051809103902060010160000160009054906101000a900473ffffffffffffffffffffffffffffffffffffffff1673ffffffffffffffffffffffffffffffffffffffff163373ffffffffffffffffffffffffffffffffffffffff16146102af576040517f08c379a00000000000000000000000000000000000000000000000000000000081526004016102a690611c56565b60405180910390fd5b674563918244f4000034146102f9576040517f08c379a00000000000000000000000000000000000000000000000000000000081526004016102f090611cd6565b60405180910390fd5b600160008360405161030b9190611ab1565b908152602001604051809103902060060160006101000a81548160ff021916908315150217905550806000836040516103449190611ab1565b9081526020016040518091039020600701819055506000808360405161036a9190611ab1565b908152602001604051809103902060080160006101000a81548173ffffffffffffffffffffffffffffffffffffffff021916908373ffffffffffffffffffffffffffffffffffffffff1602179055505050565b6000836040516103cd9190611ab1565b908152602001604051809103902060010160000160009054906101000a900473ffffffffffffffffffffffffffffffffffffffff1673ffffffffffffffffffffffffffffffffffffffff163373ffffffffffffffffffffffffffffffffffffffff161461046f576040517f08c379a000000000000000000000000000000000000000000000000000000000815260040161046690611c56565b60405180910390fd5b674563918244f4000034146104b9576040517f08c379a00000000000000000000000000000000000000000000000000000000081526004016104b090611cd6565b60405180910390fd5b60016000846040516104cb9190611ab1565b908152602001604051809103902060060160006101000a81548160ff021916908315150217905550816000846040516105049190611ab1565b9081526020016040518091039020600701819055508060008460405161052a9190611ab1565b908152602001604051809103902060080160006101000a81548173ffffffffffffffffffffffffffffffffffffffff021916908373ffffffffffffffffffffffffffffffffffffffff160217905550505050565b60008160405161058e9190611ab1565b908152602001604051809103902060010160000160009054906101000a900473ffffffffffffffffffffffffffffffffffffffff1673ffffffffffffffffffffffffffffffffffffffff163373ffffffffffffffffffffffffffffffffffffffff1614610630576040517f08c379a000000000000000000000000000000000000000000000000000000000815260040161062790611c16565b60405180910390fd5b600080826040516106419190611ab1565b908152602001604051809103902060060160006101000a81548160ff0219169083151502179055506000808260405161067a9190611ab1565b908152602001604051809103902060070181905550600080826040516106a09190611ab1565b908152602001604051809103902060080160006101000a81548173ffffffffffffffffffffffffffffffffffffffff021916908373ffffffffffffffffffffffffffffffffffffffff16021790555050565b6000806000836040516107059190611ab1565b9081526020016040518091039020600001805461072190611f91565b905011610763576040517f08c379a000000000000000000000000000000000000000000000000000000000815260040161075a90611c76565b60405180910390fd5b6000826040516107739190611ab1565b9081526020016040518091039020600501805490509050919050565b600033905060008351116107d8576040517f08c379a00000000000000000000000000000000000000000000000000000000081526004016107cf90611bd6565b60405180910390fd5b6000836040516107e89190611ab1565b908152602001604051809103902060010160000160009054906101000a900473ffffffffffffffffffffffffffffffffffffffff1673ffffffffffffffffffffffffffffffffffffffff163373ffffffffffffffffffffffffffffffffffffffff16141561088b576040517f08c379a000000000000000000000000000000000000000000000000000000000815260040161088290611cb6565b60405180910390fd5b8260008460405161089c9190611ab1565b908152602001604051809103902060000190805190602001906108c092919061166b565b50600073ffffffffffffffffffffffffffffffffffffffff166000846040516108e99190611ab1565b908152602001604051809103902060010160000160009054906101000a900473ffffffffffffffffffffffffffffffffffffffff1673ffffffffffffffffffffffffffffffffffffffff1614610d695761094283611484565b1561099757680340aad21b3b7000003414610992576040517f08c379a000000000000000000000000000000000000000000000000000000000815260040161098990611c36565b60405180910390fd5b610c4f565b6000836040516109a79190611ab1565b908152602001604051809103902060060160009054906101000a900460ff16610a05576040517f08c379a00000000000000000000000000000000000000000000000000000000081526004016109fc90611bf6565b60405180910390fd5b600073ffffffffffffffffffffffffffffffffffffffff16600084604051610a2d9190611ab1565b908152602001604051809103902060080160009054906101000a900473ffffffffffffffffffffffffffffffffffffffff1673ffffffffffffffffffffffffffffffffffffffff1614610b2a573373ffffffffffffffffffffffffffffffffffffffff16600084604051610aa19190611ab1565b908152602001604051809103902060080160009054906101000a900473ffffffffffffffffffffffffffffffffffffffff1673ffffffffffffffffffffffffffffffffffffffff1614610b29576040517f08c379a0000000000000000000000000000000000000000000000000000000008152600401610b2090611cf6565b60405180910390fd5b5b600083604051610b3a9190611ab1565b9081526020016040518091039020600701543414610bcf60405180606001604052806021815260200161246c60219139610b94600087604051610b7d9190611ab1565b9081526020016040518091039020600701546114b3565b6040518060400160405280600781526020017f204574686572210000000000000000000000000000000000000000000000000081525061163c565b90610c10576040517f08c379a0000000000000000000000000000000000000000000000000000000008152600401610c079190611b3e565b60405180910390fd5b506001600084604051610c239190611ab1565b908152602001604051809103902060010160030160006101000a81548160ff0219169083151502179055505b600083604051610c5f9190611ab1565b9081526020016040518091039020600501600084604051610c809190611ab1565b908152602001604051809103902060010190806001815401808255809150506001900390600052602060002090600402016000909190919091506000820160009054906101000a900473ffffffffffffffffffffffffffffffffffffffff168160000160006101000a81548173ffffffffffffffffffffffffffffffffffffffff021916908373ffffffffffffffffffffffffffffffffffffffff16021790555060018201548160010155600282015481600201556003820160009054906101000a900460ff168160030160006101000a81548160ff0219169083151502179055505050610e22565b670de0b6b3a764000082610d7d9190611e6c565b3414610ddf60405180608001604052806041815260200161248d60419139610da4856114b3565b6040518060400160405280600781526020017f204574686572290000000000000000000000000000000000000000000000000081525061163c565b90610e20576040517f08c379a0000000000000000000000000000000000000000000000000000000008152600401610e179190611b3e565b60405180910390fd5b505b60405180608001604052808273ffffffffffffffffffffffffffffffffffffffff1681526020014281526020016201518084610e5e9190611e6c565b42610e699190611dae565b815260200160001515815250600084604051610e859190611ab1565b908152602001604051809103902060010160008201518160000160006101000a81548173ffffffffffffffffffffffffffffffffffffffff021916908373ffffffffffffffffffffffffffffffffffffffff160217905550602082015181600101556040820151816002015560608201518160030160006101000a81548160ff021916908315150217905550905050610f1d8361057e565b505050565b60008060008060008087604051610f399190611ab1565b90815260200160405180910390206000018054610f5590611f91565b905011610f97576040517f08c379a0000000000000000000000000000000000000000000000000000000008152600401610f8e90611c76565b60405180910390fd5b600086604051610fa79190611ab1565b9081526020016040518091039020600501805490508510610ffd576040517f08c379a0000000000000000000000000000000000000000000000000000000008152600401610ff490611c96565b60405180910390fd5b60008660405161100d9190611ab1565b908152602001604051809103902060050185815481106110305761102f6120ca565b5b906000526020600020906004020160000160009054906101000a900473ffffffffffffffffffffffffffffffffffffffff1693506000866040516110749190611ab1565b90815260200160405180910390206005018581548110611097576110966120ca565b5b90600052602060002090600402016001015492506000866040516110bb9190611ab1565b908152602001604051809103902060050185815481106110de576110dd6120ca565b5b90600052602060002090600402016002015491506000866040516111029190611ab1565b90815260200160405180910390206005018581548110611125576111246120ca565b5b906000526020600020906004020160030160009054906101000a900460ff16905092959194509250565b600080600080600080866040516111669190611ab1565b9081526020016040518091039020600001805461118290611f91565b9050116111c4576040517f08c379a00000000000000000000000000000000000000000000000000000000081526004016111bb90611c76565b60405180910390fd5b6000856040516111d49190611ab1565b908152602001604051809103902060010160000160009054906101000a900473ffffffffffffffffffffffffffffffffffffffff16935060008560405161121b9190611ab1565b90815260200160405180910390206001016001015492506000856040516112429190611ab1565b90815260200160405180910390206001016002015491506000856040516112699190611ab1565b908152602001604051809103902060010160030160009054906101000a900460ff1690509193509193565b60606000806000806000806000886040516112af9190611ab1565b908152602001604051809103902060000180546112cb90611f91565b80601f01602080910402602001604051908101604052809291908181526020018280546112f790611f91565b80156113445780601f1061131957610100808354040283529160200191611344565b820191906000526020600020905b81548152906001019060200180831161132757829003601f168201915b5050505050965060008860405161135b9190611ab1565b908152602001604051809103902060010160000160009054906101000a900473ffffffffffffffffffffffffffffffffffffffff1695506000886040516113a29190611ab1565b90815260200160405180910390206001016001015494506000886040516113c99190611ab1565b90815260200160405180910390206001016002015493506000886040516113f09190611ab1565b908152602001604051809103902060060160009054906101000a900460ff1692506000886040516114219190611ab1565b90815260200160405180910390206007015491506000886040516114459190611ab1565b908152602001604051809103902060080160009054906101000a900473ffffffffffffffffffffffffffffffffffffffff169050919395979092949650565b600080826040516114959190611ab1565b90815260200160405180910390206001016002015442119050919050565b606060008214156114fb576040518060400160405280600181526020017f30000000000000000000000000000000000000000000000000000000000000008152509050611637565b600082905060005b6000821461152d57808061151690611ff4565b915050600a826115269190611e3b565b9150611503565b60008167ffffffffffffffff811115611549576115486120f9565b5b6040519080825280601f01601f19166020018201604052801561157b5781602001600182028036833780820191505090505b50905060008290505b6000861461162f576001816115999190611ec6565b90506000600a80886115ab9190611e3b565b6115b59190611e6c565b876115c09190611ec6565b60306115cc9190611e04565b905060008160f81b9050808484815181106115ea576115e96120ca565b5b60200101907effffffffffffffffffffffffffffffffffffffffffffffffffffffffffffff1916908160001a905350600a886116269190611e3b565b97505050611584565b819450505050505b919050565b606083838360405160200161165393929190611ac8565b60405160208183030381529060405290509392505050565b82805461167790611f91565b90600052602060002090601f01602090048101928261169957600085556116e0565b82601f106116b257805160ff19168380011785556116e0565b828001600101855582156116e0579182015b828111156116df5782518255916020019190600101906116c4565b5b5090506116ed91906116f1565b5090565b5b8082111561170a5760008160009055506001016116f2565b5090565b600061172161171c84611d56565b611d31565b90508281526020810184848401111561173d5761173c61212d565b5b611748848285611f4f565b509392505050565b60008135905061175f8161243d565b92915050565b600082601f83011261177a57611779612128565b5b813561178a84826020860161170e565b91505092915050565b6000813590506117a281612454565b92915050565b6000602082840312156117be576117bd612137565b5b600082013567ffffffffffffffff8111156117dc576117db612132565b5b6117e884828501611765565b91505092915050565b6000806040838503121561180857611807612137565b5b600083013567ffffffffffffffff81111561182657611825612132565b5b61183285828601611765565b925050602061184385828601611793565b9150509250929050565b60008060006060848603121561186657611865612137565b5b600084013567ffffffffffffffff81111561188457611883612132565b5b61189086828701611765565b93505060206118a186828701611793565b92505060406118b286828701611750565b9150509250925092565b6118c581611efa565b82525050565b6118d481611f0c565b82525050565b60006118e582611d87565b6118ef8185611d92565b93506118ff818560208601611f5e565b6119088161213c565b840191505092915050565b600061191e82611d87565b6119288185611da3565b9350611938818560208601611f5e565b80840191505092915050565b6000611951601783611d92565b915061195c8261214d565b602082019050919050565b6000611974603683611d92565b915061197f82612176565b604082019050919050565b6000611997603083611d92565b91506119a2826121c5565b604082019050919050565b60006119ba602e83611d92565b91506119c582612214565b604082019050919050565b60006119dd602d83611d92565b91506119e882612263565b604082019050919050565b6000611a00602183611d92565b9150611a0b826122b2565b604082019050919050565b6000611a23602b83611d92565b9150611a2e82612301565b604082019050919050565b6000611a46601f83611d92565b9150611a5182612350565b602082019050919050565b6000611a69603283611d92565b9150611a7482612379565b604082019050919050565b6000611a8c604883611d92565b9150611a97826123c8565b606082019050919050565b611aab81611f38565b82525050565b6000611abd8284611913565b915081905092915050565b6000611ad48286611913565b9150611ae08285611913565b9150611aec8284611913565b9150819050949350505050565b6000608082019050611b0e60008301876118bc565b611b1b6020830186611aa2565b611b286040830185611aa2565b611b3560608301846118cb565b95945050505050565b60006020820190508181036000830152611b5881846118da565b905092915050565b600060e0820190508181036000830152611b7a818a6118da565b9050611b8960208301896118bc565b611b966040830188611aa2565b611ba36060830187611aa2565b611bb060808301866118cb565b611bbd60a0830185611aa2565b611bca60c08301846118bc565b98975050505050505050565b60006020820190508181036000830152611bef81611944565b9050919050565b60006020820190508181036000830152611c0f81611967565b9050919050565b60006020820190508181036000830152611c2f8161198a565b9050919050565b60006020820190508181036000830152611c4f816119ad565b9050919050565b60006020820190508181036000830152611c6f816119d0565b9050919050565b60006020820190508181036000830152611c8f816119f3565b9050919050565b60006020820190508181036000830152611caf81611a16565b9050919050565b60006020820190508181036000830152611ccf81611a39565b9050919050565b60006020820190508181036000830152611cef81611a5c565b9050919050565b60006020820190508181036000830152611d0f81611a7f565b9050919050565b6000602082019050611d2b6000830184611aa2565b92915050565b6000611d3b611d4c565b9050611d478282611fc3565b919050565b6000604051905090565b600067ffffffffffffffff821115611d7157611d706120f9565b5b611d7a8261213c565b9050602081019050919050565b600081519050919050565b600082825260208201905092915050565b600081905092915050565b6000611db982611f38565b9150611dc483611f38565b9250827fffffffffffffffffffffffffffffffffffffffffffffffffffffffffffffffff03821115611df957611df861203d565b5b828201905092915050565b6000611e0f82611f42565b9150611e1a83611f42565b92508260ff03821115611e3057611e2f61203d565b5b828201905092915050565b6000611e4682611f38565b9150611e5183611f38565b925082611e6157611e6061206c565b5b828204905092915050565b6000611e7782611f38565b9150611e8283611f38565b9250817fffffffffffffffffffffffffffffffffffffffffffffffffffffffffffffffff0483118215151615611ebb57611eba61203d565b5b828202905092915050565b6000611ed182611f38565b9150611edc83611f38565b925082821015611eef57611eee61203d565b5b828203905092915050565b6000611f0582611f18565b9050919050565b60008115159050919050565b600073ffffffffffffffffffffffffffffffffffffffff82169050919050565b6000819050919050565b600060ff82169050919050565b82818337600083830152505050565b60005b83811015611f7c578082015181840152602081019050611f61565b83811115611f8b576000848401525b50505050565b60006002820490506001821680611fa957607f821691505b60208210811415611fbd57611fbc61209b565b5b50919050565b611fcc8261213c565b810181811067ffffffffffffffff82111715611feb57611fea6120f9565b5b80604052505050565b6000611fff82611f38565b91507fffffffffffffffffffffffffffffffffffffffffffffffffffffffffffffffff8214156120325761203161203d565b5b600182019050919050565b7f4e487b7100000000000000000000000000000000000000000000000000000000600052601160045260246000fd5b7f4e487b7100000000000000000000000000000000000000000000000000000000600052601260045260246000fd5b7f4e487b7100000000000000000000000000000000000000000000000000000000600052602260045260246000fd5b7f4e487b7100000000000000000000000000000000000000000000000000000000600052603260045260246000fd5b7f4e487b7100000000000000000000000000000000000000000000000000000000600052604160045260246000fd5b600080fd5b600080fd5b600080fd5b600080fd5b6000601f19601f8301169050919050565b7f596f75206d757374207365617263682061207465726d21000000000000000000600082015250565b7f54686520636f707972696768742068617320612063757272656e74206f776e6560008201527f7220616e64206973206e6f7420666f722073616c652100000000000000000000602082015250565b7f596f7520617265206e6f74207468652063757272656e74206f776e6572206f6660008201527f207468697320636f707972696768742100000000000000000000000000000000602082015250565b7f497420636f73747320363020457468657220746f2062757920616e206578706960008201527f72656420636f7079726967687421000000000000000000000000000000000000602082015250565b7f596f752063616e27742073656c6c206120636f7079726967687420776869636860008201527f2069736e277420796f7572732100000000000000000000000000000000000000602082015250565b7f5468697320636f7079726967687420686173206e6f20686f6c6465722079657460008201527f2100000000000000000000000000000000000000000000000000000000000000602082015250565b7f54686572652773206e6f2070726576696f757320686f6c64657220776974682060008201527f7468697320696e64657821000000000000000000000000000000000000000000602082015250565b7f596f7520616c7265616479206f776e207468697320636f707972696768742100600082015250565b7f497420636f737473203520457468657220746f2073657420757020612073616c60008201527f6520666f72206120636f70797269676874210000000000000000000000000000602082015250565b7f54686520636f7079726967687420697320666f722073616c652c20627574206960008201527f7420686173206265656e20726573657276656420666f7220616e6f746865722060208201527f6164647265737321000000000000000000000000000000000000000000000000604082015250565b61244681611efa565b811461245157600080fd5b50565b61245d81611f38565b811461246857600080fd5b5056fe5468697320636f70797269676874206973206265696e6720736f6c6420666f7220497420636f7374732031204574686572207065722064617920746f206275792061206e657720636f7079726967687421202843757272656e742050726963653a20a264697066735822122000115d97a800b09c7c10b5b40b00e52dd973524059d22152b05f6345c293cc0f64736f6c63430008070033",
			"opcodes": "PUSH1 0x80 PUSH1 0x40 MSTORE CALLVALUE DUP1 ISZERO PUSH2 0x10 JUMPI PUSH1 0x0 DUP1 REVERT JUMPDEST POP PUSH2 0x2503 DUP1 PUSH2 0x20 PUSH1 0x0 CODECOPY PUSH1 0x0 RETURN INVALID PUSH1 0x80 PUSH1 0x40 MSTORE PUSH1 0x4 CALLDATASIZE LT PUSH2 0x7B JUMPI PUSH1 0x0 CALLDATALOAD PUSH1 0xE0 SHR DUP1 PUSH4 0x851BD33C GT PUSH2 0x4E JUMPI DUP1 PUSH4 0x851BD33C EQ PUSH2 0x11E JUMPI DUP1 PUSH4 0xA4E773D6 EQ PUSH2 0x13A JUMPI DUP1 PUSH4 0xBFCA9C37 EQ PUSH2 0x17A JUMPI DUP1 PUSH4 0xC2C3BFA9 EQ PUSH2 0x1BA JUMPI PUSH2 0x7B JUMP JUMPDEST DUP1 PUSH4 0x7D81FB8 EQ PUSH2 0x80 JUMPI DUP1 PUSH4 0xB1CEA45 EQ PUSH2 0x9C JUMPI DUP1 PUSH4 0x2977F78A EQ PUSH2 0xB8 JUMPI DUP1 PUSH4 0x30CF1769 EQ PUSH2 0xE1 JUMPI JUMPDEST PUSH1 0x0 DUP1 REVERT JUMPDEST PUSH2 0x9A PUSH1 0x4 DUP1 CALLDATASIZE SUB DUP2 ADD SWAP1 PUSH2 0x95 SWAP2 SWAP1 PUSH2 0x17F1 JUMP JUMPDEST PUSH2 0x1FD JUMP JUMPDEST STOP JUMPDEST PUSH2 0xB6 PUSH1 0x4 DUP1 CALLDATASIZE SUB DUP2 ADD SWAP1 PUSH2 0xB1 SWAP2 SWAP1 PUSH2 0x184D JUMP JUMPDEST PUSH2 0x3BD JUMP JUMPDEST STOP JUMPDEST CALLVALUE DUP1 ISZERO PUSH2 0xC4 JUMPI PUSH1 0x0 DUP1 REVERT JUMPDEST POP PUSH2 0xDF PUSH1 0x4 DUP1 CALLDATASIZE SUB DUP2 ADD SWAP1 PUSH2 0xDA SWAP2 SWAP1 PUSH2 0x17A8 JUMP JUMPDEST PUSH2 0x57E JUMP JUMPDEST STOP JUMPDEST CALLVALUE DUP1 ISZERO PUSH2 0xED JUMPI PUSH1 0x0 DUP1 REVERT JUMPDEST POP PUSH2 0x108 PUSH1 0x4 DUP1 CALLDATASIZE SUB DUP2 ADD SWAP1 PUSH2 0x103 SWAP2 SWAP1 PUSH2 0x17A8 JUMP JUMPDEST PUSH2 0x6F2 JUMP JUMPDEST PUSH1 0x40 MLOAD PUSH2 0x115 SWAP2 SWAP1 PUSH2 0x1D16 JUMP JUMPDEST PUSH1 0x40 MLOAD DUP1 SWAP2 SUB SWAP1 RETURN JUMPDEST PUSH2 0x138 PUSH1 0x4 DUP1 CALLDATASIZE SUB DUP2 ADD SWAP1 PUSH2 0x133 SWAP2 SWAP1 PUSH2 0x17F1 JUMP JUMPDEST PUSH2 0x78F JUMP JUMPDEST STOP JUMPDEST CALLVALUE DUP1 ISZERO PUSH2 0x146 JUMPI PUSH1 0x0 DUP1 REVERT JUMPDEST POP PUSH2 0x161 PUSH1 0x4 DUP1 CALLDATASIZE SUB DUP2 ADD SWAP1 PUSH2 0x15C SWAP2 SWAP1 PUSH2 0x17F1 JUMP JUMPDEST PUSH2 0xF22 JUMP JUMPDEST PUSH1 0x40 MLOAD PUSH2 0x171 SWAP5 SWAP4 SWAP3 SWAP2 SWAP1 PUSH2 0x1AF9 JUMP JUMPDEST PUSH1 0x40 MLOAD DUP1 SWAP2 SUB SWAP1 RETURN JUMPDEST CALLVALUE DUP1 ISZERO PUSH2 0x186 JUMPI PUSH1 0x0 DUP1 REVERT JUMPDEST POP PUSH2 0x1A1 PUSH1 0x4 DUP1 CALLDATASIZE SUB DUP2 ADD SWAP1 PUSH2 0x19C SWAP2 SWAP1 PUSH2 0x17A8 JUMP JUMPDEST PUSH2 0x114F JUMP JUMPDEST PUSH1 0x40 MLOAD PUSH2 0x1B1 SWAP5 SWAP4 SWAP3 SWAP2 SWAP1 PUSH2 0x1AF9 JUMP JUMPDEST PUSH1 0x40 MLOAD DUP1 SWAP2 SUB SWAP1 RETURN JUMPDEST CALLVALUE DUP1 ISZERO PUSH2 0x1C6 JUMPI PUSH1 0x0 DUP1 REVERT JUMPDEST POP PUSH2 0x1E1 PUSH1 0x4 DUP1 CALLDATASIZE SUB DUP2 ADD SWAP1 PUSH2 0x1DC SWAP2 SWAP1 PUSH2 0x17A8 JUMP JUMPDEST PUSH2 0x1294 JUMP JUMPDEST PUSH1 0x40 MLOAD PUSH2 0x1F4 SWAP8 SWAP7 SWAP6 SWAP5 SWAP4 SWAP3 SWAP2 SWAP1 PUSH2 0x1B60 JUMP JUMPDEST PUSH1 0x40 MLOAD DUP1 SWAP2 SUB SWAP1 RETURN JUMPDEST PUSH1 0x0 DUP3 PUSH1 0x40 MLOAD PUSH2 0x20D SWAP2 SWAP1 PUSH2 0x1AB1 JUMP JUMPDEST SWAP1 DUP2 MSTORE PUSH1 0x20 ADD PUSH1 0x40 MLOAD DUP1 SWAP2 SUB SWAP1 KECCAK256 PUSH1 0x1 ADD PUSH1 0x0 ADD PUSH1 0x0 SWAP1 SLOAD SWAP1 PUSH2 0x100 EXP SWAP1 DIV PUSH20 0xFFFFFFFFFFFFFFFFFFFFFFFFFFFFFFFFFFFFFFFF AND PUSH20 0xFFFFFFFFFFFFFFFFFFFFFFFFFFFFFFFFFFFFFFFF AND CALLER PUSH20 0xFFFFFFFFFFFFFFFFFFFFFFFFFFFFFFFFFFFFFFFF AND EQ PUSH2 0x2AF JUMPI PUSH1 0x40 MLOAD PUSH32 0x8C379A000000000000000000000000000000000000000000000000000000000 DUP2 MSTORE PUSH1 0x4 ADD PUSH2 0x2A6 SWAP1 PUSH2 0x1C56 JUMP JUMPDEST PUSH1 0x40 MLOAD DUP1 SWAP2 SUB SWAP1 REVERT JUMPDEST PUSH8 0x4563918244F40000 CALLVALUE EQ PUSH2 0x2F9 JUMPI PUSH1 0x40 MLOAD PUSH32 0x8C379A000000000000000000000000000000000000000000000000000000000 DUP2 MSTORE PUSH1 0x4 ADD PUSH2 0x2F0 SWAP1 PUSH2 0x1CD6 JUMP JUMPDEST PUSH1 0x40 MLOAD DUP1 SWAP2 SUB SWAP1 REVERT JUMPDEST PUSH1 0x1 PUSH1 0x0 DUP4 PUSH1 0x40 MLOAD PUSH2 0x30B SWAP2 SWAP1 PUSH2 0x1AB1 JUMP JUMPDEST SWAP1 DUP2 MSTORE PUSH1 0x20 ADD PUSH1 0x40 MLOAD DUP1 SWAP2 SUB SWAP1 KECCAK256 PUSH1 0x6 ADD PUSH1 0x0 PUSH2 0x100 EXP DUP2 SLOAD DUP2 PUSH1 0xFF MUL NOT AND SWAP1 DUP4 ISZERO ISZERO MUL OR SWAP1 SSTORE POP DUP1 PUSH1 0x0 DUP4 PUSH1 0x40 MLOAD PUSH2 0x344 SWAP2 SWAP1 PUSH2 0x1AB1 JUMP JUMPDEST SWAP1 DUP2 MSTORE PUSH1 0x20 ADD PUSH1 0x40 MLOAD DUP1 SWAP2 SUB SWAP1 KECCAK256 PUSH1 0x7 ADD DUP2 SWAP1 SSTORE POP PUSH1 0x0 DUP1 DUP4 PUSH1 0x40 MLOAD PUSH2 0x36A SWAP2 SWAP1 PUSH2 0x1AB1 JUMP JUMPDEST SWAP1 DUP2 MSTORE PUSH1 0x20 ADD PUSH1 0x40 MLOAD DUP1 SWAP2 SUB SWAP1 KECCAK256 PUSH1 0x8 ADD PUSH1 0x0 PUSH2 0x100 EXP DUP2 SLOAD DUP2 PUSH20 0xFFFFFFFFFFFFFFFFFFFFFFFFFFFFFFFFFFFFFFFF MUL NOT AND SWAP1 DUP4 PUSH20 0xFFFFFFFFFFFFFFFFFFFFFFFFFFFFFFFFFFFFFFFF AND MUL OR SWAP1 SSTORE POP POP POP JUMP JUMPDEST PUSH1 0x0 DUP4 PUSH1 0x40 MLOAD PUSH2 0x3CD SWAP2 SWAP1 PUSH2 0x1AB1 JUMP JUMPDEST SWAP1 DUP2 MSTORE PUSH1 0x20 ADD PUSH1 0x40 MLOAD DUP1 SWAP2 SUB SWAP1 KECCAK256 PUSH1 0x1 ADD PUSH1 0x0 ADD PUSH1 0x0 SWAP1 SLOAD SWAP1 PUSH2 0x100 EXP SWAP1 DIV PUSH20 0xFFFFFFFFFFFFFFFFFFFFFFFFFFFFFFFFFFFFFFFF AND PUSH20 0xFFFFFFFFFFFFFFFFFFFFFFFFFFFFFFFFFFFFFFFF AND CALLER PUSH20 0xFFFFFFFFFFFFFFFFFFFFFFFFFFFFFFFFFFFFFFFF AND EQ PUSH2 0x46F JUMPI PUSH1 0x40 MLOAD PUSH32 0x8C379A000000000000000000000000000000000000000000000000000000000 DUP2 MSTORE PUSH1 0x4 ADD PUSH2 0x466 SWAP1 PUSH2 0x1C56 JUMP JUMPDEST PUSH1 0x40 MLOAD DUP1 SWAP2 SUB SWAP1 REVERT JUMPDEST PUSH8 0x4563918244F40000 CALLVALUE EQ PUSH2 0x4B9 JUMPI PUSH1 0x40 MLOAD PUSH32 0x8C379A000000000000000000000000000000000000000000000000000000000 DUP2 MSTORE PUSH1 0x4 ADD PUSH2 0x4B0 SWAP1 PUSH2 0x1CD6 JUMP JUMPDEST PUSH1 0x40 MLOAD DUP1 SWAP2 SUB SWAP1 REVERT JUMPDEST PUSH1 0x1 PUSH1 0x0 DUP5 PUSH1 0x40 MLOAD PUSH2 0x4CB SWAP2 SWAP1 PUSH2 0x1AB1 JUMP JUMPDEST SWAP1 DUP2 MSTORE PUSH1 0x20 ADD PUSH1 0x40 MLOAD DUP1 SWAP2 SUB SWAP1 KECCAK256 PUSH1 0x6 ADD PUSH1 0x0 PUSH2 0x100 EXP DUP2 SLOAD DUP2 PUSH1 0xFF MUL NOT AND SWAP1 DUP4 ISZERO ISZERO MUL OR SWAP1 SSTORE POP DUP2 PUSH1 0x0 DUP5 PUSH1 0x40 MLOAD PUSH2 0x504 SWAP2 SWAP1 PUSH2 0x1AB1 JUMP JUMPDEST SWAP1 DUP2 MSTORE PUSH1 0x20 ADD PUSH1 0x40 MLOAD DUP1 SWAP2 SUB SWAP1 KECCAK256 PUSH1 0x7 ADD DUP2 SWAP1 SSTORE POP DUP1 PUSH1 0x0 DUP5 PUSH1 0x40 MLOAD PUSH2 0x52A SWAP2 SWAP1 PUSH2 0x1AB1 JUMP JUMPDEST SWAP1 DUP2 MSTORE PUSH1 0x20 ADD PUSH1 0x40 MLOAD DUP1 SWAP2 SUB SWAP1 KECCAK256 PUSH1 0x8 ADD PUSH1 0x0 PUSH2 0x100 EXP DUP2 SLOAD DUP2 PUSH20 0xFFFFFFFFFFFFFFFFFFFFFFFFFFFFFFFFFFFFFFFF MUL NOT AND SWAP1 DUP4 PUSH20 0xFFFFFFFFFFFFFFFFFFFFFFFFFFFFFFFFFFFFFFFF AND MUL OR SWAP1 SSTORE POP POP POP POP JUMP JUMPDEST PUSH1 0x0 DUP2 PUSH1 0x40 MLOAD PUSH2 0x58E SWAP2 SWAP1 PUSH2 0x1AB1 JUMP JUMPDEST SWAP1 DUP2 MSTORE PUSH1 0x20 ADD PUSH1 0x40 MLOAD DUP1 SWAP2 SUB SWAP1 KECCAK256 PUSH1 0x1 ADD PUSH1 0x0 ADD PUSH1 0x0 SWAP1 SLOAD SWAP1 PUSH2 0x100 EXP SWAP1 DIV PUSH20 0xFFFFFFFFFFFFFFFFFFFFFFFFFFFFFFFFFFFFFFFF AND PUSH20 0xFFFFFFFFFFFFFFFFFFFFFFFFFFFFFFFFFFFFFFFF AND CALLER PUSH20 0xFFFFFFFFFFFFFFFFFFFFFFFFFFFFFFFFFFFFFFFF AND EQ PUSH2 0x630 JUMPI PUSH1 0x40 MLOAD PUSH32 0x8C379A000000000000000000000000000000000000000000000000000000000 DUP2 MSTORE PUSH1 0x4 ADD PUSH2 0x627 SWAP1 PUSH2 0x1C16 JUMP JUMPDEST PUSH1 0x40 MLOAD DUP1 SWAP2 SUB SWAP1 REVERT JUMPDEST PUSH1 0x0 DUP1 DUP3 PUSH1 0x40 MLOAD PUSH2 0x641 SWAP2 SWAP1 PUSH2 0x1AB1 JUMP JUMPDEST SWAP1 DUP2 MSTORE PUSH1 0x20 ADD PUSH1 0x40 MLOAD DUP1 SWAP2 SUB SWAP1 KECCAK256 PUSH1 0x6 ADD PUSH1 0x0 PUSH2 0x100 EXP DUP2 SLOAD DUP2 PUSH1 0xFF MUL NOT AND SWAP1 DUP4 ISZERO ISZERO MUL OR SWAP1 SSTORE POP PUSH1 0x0 DUP1 DUP3 PUSH1 0x40 MLOAD PUSH2 0x67A SWAP2 SWAP1 PUSH2 0x1AB1 JUMP JUMPDEST SWAP1 DUP2 MSTORE PUSH1 0x20 ADD PUSH1 0x40 MLOAD DUP1 SWAP2 SUB SWAP1 KECCAK256 PUSH1 0x7 ADD DUP2 SWAP1 SSTORE POP PUSH1 0x0 DUP1 DUP3 PUSH1 0x40 MLOAD PUSH2 0x6A0 SWAP2 SWAP1 PUSH2 0x1AB1 JUMP JUMPDEST SWAP1 DUP2 MSTORE PUSH1 0x20 ADD PUSH1 0x40 MLOAD DUP1 SWAP2 SUB SWAP1 KECCAK256 PUSH1 0x8 ADD PUSH1 0x0 PUSH2 0x100 EXP DUP2 SLOAD DUP2 PUSH20 0xFFFFFFFFFFFFFFFFFFFFFFFFFFFFFFFFFFFFFFFF MUL NOT AND SWAP1 DUP4 PUSH20 0xFFFFFFFFFFFFFFFFFFFFFFFFFFFFFFFFFFFFFFFF AND MUL OR SWAP1 SSTORE POP POP JUMP JUMPDEST PUSH1 0x0 DUP1 PUSH1 0x0 DUP4 PUSH1 0x40 MLOAD PUSH2 0x705 SWAP2 SWAP1 PUSH2 0x1AB1 JUMP JUMPDEST SWAP1 DUP2 MSTORE PUSH1 0x20 ADD PUSH1 0x40 MLOAD DUP1 SWAP2 SUB SWAP1 KECCAK256 PUSH1 0x0 ADD DUP1 SLOAD PUSH2 0x721 SWAP1 PUSH2 0x1F91 JUMP JUMPDEST SWAP1 POP GT PUSH2 0x763 JUMPI PUSH1 0x40 MLOAD PUSH32 0x8C379A000000000000000000000000000000000000000000000000000000000 DUP2 MSTORE PUSH1 0x4 ADD PUSH2 0x75A SWAP1 PUSH2 0x1C76 JUMP JUMPDEST PUSH1 0x40 MLOAD DUP1 SWAP2 SUB SWAP1 REVERT JUMPDEST PUSH1 0x0 DUP3 PUSH1 0x40 MLOAD PUSH2 0x773 SWAP2 SWAP1 PUSH2 0x1AB1 JUMP JUMPDEST SWAP1 DUP2 MSTORE PUSH1 0x20 ADD PUSH1 0x40 MLOAD DUP1 SWAP2 SUB SWAP1 KECCAK256 PUSH1 0x5 ADD DUP1 SLOAD SWAP1 POP SWAP1 POP SWAP2 SWAP1 POP JUMP JUMPDEST PUSH1 0x0 CALLER SWAP1 POP PUSH1 0x0 DUP4 MLOAD GT PUSH2 0x7D8 JUMPI PUSH1 0x40 MLOAD PUSH32 0x8C379A000000000000000000000000000000000000000000000000000000000 DUP2 MSTORE PUSH1 0x4 ADD PUSH2 0x7CF SWAP1 PUSH2 0x1BD6 JUMP JUMPDEST PUSH1 0x40 MLOAD DUP1 SWAP2 SUB SWAP1 REVERT JUMPDEST PUSH1 0x0 DUP4 PUSH1 0x40 MLOAD PUSH2 0x7E8 SWAP2 SWAP1 PUSH2 0x1AB1 JUMP JUMPDEST SWAP1 DUP2 MSTORE PUSH1 0x20 ADD PUSH1 0x40 MLOAD DUP1 SWAP2 SUB SWAP1 KECCAK256 PUSH1 0x1 ADD PUSH1 0x0 ADD PUSH1 0x0 SWAP1 SLOAD SWAP1 PUSH2 0x100 EXP SWAP1 DIV PUSH20 0xFFFFFFFFFFFFFFFFFFFFFFFFFFFFFFFFFFFFFFFF AND PUSH20 0xFFFFFFFFFFFFFFFFFFFFFFFFFFFFFFFFFFFFFFFF AND CALLER PUSH20 0xFFFFFFFFFFFFFFFFFFFFFFFFFFFFFFFFFFFFFFFF AND EQ ISZERO PUSH2 0x88B JUMPI PUSH1 0x40 MLOAD PUSH32 0x8C379A000000000000000000000000000000000000000000000000000000000 DUP2 MSTORE PUSH1 0x4 ADD PUSH2 0x882 SWAP1 PUSH2 0x1CB6 JUMP JUMPDEST PUSH1 0x40 MLOAD DUP1 SWAP2 SUB SWAP1 REVERT JUMPDEST DUP3 PUSH1 0x0 DUP5 PUSH1 0x40 MLOAD PUSH2 0x89C SWAP2 SWAP1 PUSH2 0x1AB1 JUMP JUMPDEST SWAP1 DUP2 MSTORE PUSH1 0x20 ADD PUSH1 0x40 MLOAD DUP1 SWAP2 SUB SWAP1 KECCAK256 PUSH1 0x0 ADD SWAP1 DUP1 MLOAD SWAP1 PUSH1 0x20 ADD SWAP1 PUSH2 0x8C0 SWAP3 SWAP2 SWAP1 PUSH2 0x166B JUMP JUMPDEST POP PUSH1 0x0 PUSH20 0xFFFFFFFFFFFFFFFFFFFFFFFFFFFFFFFFFFFFFFFF AND PUSH1 0x0 DUP5 PUSH1 0x40 MLOAD PUSH2 0x8E9 SWAP2 SWAP1 PUSH2 0x1AB1 JUMP JUMPDEST SWAP1 DUP2 MSTORE PUSH1 0x20 ADD PUSH1 0x40 MLOAD DUP1 SWAP2 SUB SWAP1 KECCAK256 PUSH1 0x1 ADD PUSH1 0x0 ADD PUSH1 0x0 SWAP1 SLOAD SWAP1 PUSH2 0x100 EXP SWAP1 DIV PUSH20 0xFFFFFFFFFFFFFFFFFFFFFFFFFFFFFFFFFFFFFFFF AND PUSH20 0xFFFFFFFFFFFFFFFFFFFFFFFFFFFFFFFFFFFFFFFF AND EQ PUSH2 0xD69 JUMPI PUSH2 0x942 DUP4 PUSH2 0x1484 JUMP JUMPDEST ISZERO PUSH2 0x997 JUMPI PUSH9 0x340AAD21B3B700000 CALLVALUE EQ PUSH2 0x992 JUMPI PUSH1 0x40 MLOAD PUSH32 0x8C379A000000000000000000000000000000000000000000000000000000000 DUP2 MSTORE PUSH1 0x4 ADD PUSH2 0x989 SWAP1 PUSH2 0x1C36 JUMP JUMPDEST PUSH1 0x40 MLOAD DUP1 SWAP2 SUB SWAP1 REVERT JUMPDEST PUSH2 0xC4F JUMP JUMPDEST PUSH1 0x0 DUP4 PUSH1 0x40 MLOAD PUSH2 0x9A7 SWAP2 SWAP1 PUSH2 0x1AB1 JUMP JUMPDEST SWAP1 DUP2 MSTORE PUSH1 0x20 ADD PUSH1 0x40 MLOAD DUP1 SWAP2 SUB SWAP1 KECCAK256 PUSH1 0x6 ADD PUSH1 0x0 SWAP1 SLOAD SWAP1 PUSH2 0x100 EXP SWAP1 DIV PUSH1 0xFF AND PUSH2 0xA05 JUMPI PUSH1 0x40 MLOAD PUSH32 0x8C379A000000000000000000000000000000000000000000000000000000000 DUP2 MSTORE PUSH1 0x4 ADD PUSH2 0x9FC SWAP1 PUSH2 0x1BF6 JUMP JUMPDEST PUSH1 0x40 MLOAD DUP1 SWAP2 SUB SWAP1 REVERT JUMPDEST PUSH1 0x0 PUSH20 0xFFFFFFFFFFFFFFFFFFFFFFFFFFFFFFFFFFFFFFFF AND PUSH1 0x0 DUP5 PUSH1 0x40 MLOAD PUSH2 0xA2D SWAP2 SWAP1 PUSH2 0x1AB1 JUMP JUMPDEST SWAP1 DUP2 MSTORE PUSH1 0x20 ADD PUSH1 0x40 MLOAD DUP1 SWAP2 SUB SWAP1 KECCAK256 PUSH1 0x8 ADD PUSH1 0x0 SWAP1 SLOAD SWAP1 PUSH2 0x100 EXP SWAP1 DIV PUSH20 0xFFFFFFFFFFFFFFFFFFFFFFFFFFFFFFFFFFFFFFFF AND PUSH20 0xFFFFFFFFFFFFFFFFFFFFFFFFFFFFFFFFFFFFFFFF AND EQ PUSH2 0xB2A JUMPI CALLER PUSH20 0xFFFFFFFFFFFFFFFFFFFFFFFFFFFFFFFFFFFFFFFF AND PUSH1 0x0 DUP5 PUSH1 0x40 MLOAD PUSH2 0xAA1 SWAP2 SWAP1 PUSH2 0x1AB1 JUMP JUMPDEST SWAP1 DUP2 MSTORE PUSH1 0x20 ADD PUSH1 0x40 MLOAD DUP1 SWAP2 SUB SWAP1 KECCAK256 PUSH1 0x8 ADD PUSH1 0x0 SWAP1 SLOAD SWAP1 PUSH2 0x100 EXP SWAP1 DIV PUSH20 0xFFFFFFFFFFFFFFFFFFFFFFFFFFFFFFFFFFFFFFFF AND PUSH20 0xFFFFFFFFFFFFFFFFFFFFFFFFFFFFFFFFFFFFFFFF AND EQ PUSH2 0xB29 JUMPI PUSH1 0x40 MLOAD PUSH32 0x8C379A000000000000000000000000000000000000000000000000000000000 DUP2 MSTORE PUSH1 0x4 ADD PUSH2 0xB20 SWAP1 PUSH2 0x1CF6 JUMP JUMPDEST PUSH1 0x40 MLOAD DUP1 SWAP2 SUB SWAP1 REVERT JUMPDEST JUMPDEST PUSH1 0x0 DUP4 PUSH1 0x40 MLOAD PUSH2 0xB3A SWAP2 SWAP1 PUSH2 0x1AB1 JUMP JUMPDEST SWAP1 DUP2 MSTORE PUSH1 0x20 ADD PUSH1 0x40 MLOAD DUP1 SWAP2 SUB SWAP1 KECCAK256 PUSH1 0x7 ADD SLOAD CALLVALUE EQ PUSH2 0xBCF PUSH1 0x40 MLOAD DUP1 PUSH1 0x60 ADD PUSH1 0x40 MSTORE DUP1 PUSH1 0x21 DUP2 MSTORE PUSH1 0x20 ADD PUSH2 0x246C PUSH1 0x21 SWAP2 CODECOPY PUSH2 0xB94 PUSH1 0x0 DUP8 PUSH1 0x40 MLOAD PUSH2 0xB7D SWAP2 SWAP1 PUSH2 0x1AB1 JUMP JUMPDEST SWAP1 DUP2 MSTORE PUSH1 0x20 ADD PUSH1 0x40 MLOAD DUP1 SWAP2 SUB SWAP1 KECCAK256 PUSH1 0x7 ADD SLOAD PUSH2 0x14B3 JUMP JUMPDEST PUSH1 0x40 MLOAD DUP1 PUSH1 0x40 ADD PUSH1 0x40 MSTORE DUP1 PUSH1 0x7 DUP2 MSTORE PUSH1 0x20 ADD PUSH32 0x2045746865722100000000000000000000000000000000000000000000000000 DUP2 MSTORE POP PUSH2 0x163C JUMP JUMPDEST SWAP1 PUSH2 0xC10 JUMPI PUSH1 0x40 MLOAD PUSH32 0x8C379A000000000000000000000000000000000000000000000000000000000 DUP2 MSTORE PUSH1 0x4 ADD PUSH2 0xC07 SWAP2 SWAP1 PUSH2 0x1B3E JUMP JUMPDEST PUSH1 0x40 MLOAD DUP1 SWAP2 SUB SWAP1 REVERT JUMPDEST POP PUSH1 0x1 PUSH1 0x0 DUP5 PUSH1 0x40 MLOAD PUSH2 0xC23 SWAP2 SWAP1 PUSH2 0x1AB1 JUMP JUMPDEST SWAP1 DUP2 MSTORE PUSH1 0x20 ADD PUSH1 0x40 MLOAD DUP1 SWAP2 SUB SWAP1 KECCAK256 PUSH1 0x1 ADD PUSH1 0x3 ADD PUSH1 0x0 PUSH2 0x100 EXP DUP2 SLOAD DUP2 PUSH1 0xFF MUL NOT AND SWAP1 DUP4 ISZERO ISZERO MUL OR SWAP1 SSTORE POP JUMPDEST PUSH1 0x0 DUP4 PUSH1 0x40 MLOAD PUSH2 0xC5F SWAP2 SWAP1 PUSH2 0x1AB1 JUMP JUMPDEST SWAP1 DUP2 MSTORE PUSH1 0x20 ADD PUSH1 0x40 MLOAD DUP1 SWAP2 SUB SWAP1 KECCAK256 PUSH1 0x5 ADD PUSH1 0x0 DUP5 PUSH1 0x40 MLOAD PUSH2 0xC80 SWAP2 SWAP1 PUSH2 0x1AB1 JUMP JUMPDEST SWAP1 DUP2 MSTORE PUSH1 0x20 ADD PUSH1 0x40 MLOAD DUP1 SWAP2 SUB SWAP1 KECCAK256 PUSH1 0x1 ADD SWAP1 DUP1 PUSH1 0x1 DUP2 SLOAD ADD DUP1 DUP3 SSTORE DUP1 SWAP2 POP POP PUSH1 0x1 SWAP1 SUB SWAP1 PUSH1 0x0 MSTORE PUSH1 0x20 PUSH1 0x0 KECCAK256 SWAP1 PUSH1 0x4 MUL ADD PUSH1 0x0 SWAP1 SWAP2 SWAP1 SWAP2 SWAP1 SWAP2 POP PUSH1 0x0 DUP3 ADD PUSH1 0x0 SWAP1 SLOAD SWAP1 PUSH2 0x100 EXP SWAP1 DIV PUSH20 0xFFFFFFFFFFFFFFFFFFFFFFFFFFFFFFFFFFFFFFFF AND DUP2 PUSH1 0x0 ADD PUSH1 0x0 PUSH2 0x100 EXP DUP2 SLOAD DUP2 PUSH20 0xFFFFFFFFFFFFFFFFFFFFFFFFFFFFFFFFFFFFFFFF MUL NOT AND SWAP1 DUP4 PUSH20 0xFFFFFFFFFFFFFFFFFFFFFFFFFFFFFFFFFFFFFFFF AND MUL OR SWAP1 SSTORE POP PUSH1 0x1 DUP3 ADD SLOAD DUP2 PUSH1 0x1 ADD SSTORE PUSH1 0x2 DUP3 ADD SLOAD DUP2 PUSH1 0x2 ADD SSTORE PUSH1 0x3 DUP3 ADD PUSH1 0x0 SWAP1 SLOAD SWAP1 PUSH2 0x100 EXP SWAP1 DIV PUSH1 0xFF AND DUP2 PUSH1 0x3 ADD PUSH1 0x0 PUSH2 0x100 EXP DUP2 SLOAD DUP2 PUSH1 0xFF MUL NOT AND SWAP1 DUP4 ISZERO ISZERO MUL OR SWAP1 SSTORE POP POP POP PUSH2 0xE22 JUMP JUMPDEST PUSH8 0xDE0B6B3A7640000 DUP3 PUSH2 0xD7D SWAP2 SWAP1 PUSH2 0x1E6C JUMP JUMPDEST CALLVALUE EQ PUSH2 0xDDF PUSH1 0x40 MLOAD DUP1 PUSH1 0x80 ADD PUSH1 0x40 MSTORE DUP1 PUSH1 0x41 DUP2 MSTORE PUSH1 0x20 ADD PUSH2 0x248D PUSH1 0x41 SWAP2 CODECOPY PUSH2 0xDA4 DUP6 PUSH2 0x14B3 JUMP JUMPDEST PUSH1 0x40 MLOAD DUP1 PUSH1 0x40 ADD PUSH1 0x40 MSTORE DUP1 PUSH1 0x7 DUP2 MSTORE PUSH1 0x20 ADD PUSH32 0x2045746865722900000000000000000000000000000000000000000000000000 DUP2 MSTORE POP PUSH2 0x163C JUMP JUMPDEST SWAP1 PUSH2 0xE20 JUMPI PUSH1 0x40 MLOAD PUSH32 0x8C379A000000000000000000000000000000000000000000000000000000000 DUP2 MSTORE PUSH1 0x4 ADD PUSH2 0xE17 SWAP2 SWAP1 PUSH2 0x1B3E JUMP JUMPDEST PUSH1 0x40 MLOAD DUP1 SWAP2 SUB SWAP1 REVERT JUMPDEST POP JUMPDEST PUSH1 0x40 MLOAD DUP1 PUSH1 0x80 ADD PUSH1 0x40 MSTORE DUP1 DUP3 PUSH20 0xFFFFFFFFFFFFFFFFFFFFFFFFFFFFFFFFFFFFFFFF AND DUP2 MSTORE PUSH1 0x20 ADD TIMESTAMP DUP2 MSTORE PUSH1 0x20 ADD PUSH3 0x15180 DUP5 PUSH2 0xE5E SWAP2 SWAP1 PUSH2 0x1E6C JUMP JUMPDEST TIMESTAMP PUSH2 0xE69 SWAP2 SWAP1 PUSH2 0x1DAE JUMP JUMPDEST DUP2 MSTORE PUSH1 0x20 ADD PUSH1 0x0 ISZERO ISZERO DUP2 MSTORE POP PUSH1 0x0 DUP5 PUSH1 0x40 MLOAD PUSH2 0xE85 SWAP2 SWAP1 PUSH2 0x1AB1 JUMP JUMPDEST SWAP1 DUP2 MSTORE PUSH1 0x20 ADD PUSH1 0x40 MLOAD DUP1 SWAP2 SUB SWAP1 KECCAK256 PUSH1 0x1 ADD PUSH1 0x0 DUP3 ADD MLOAD DUP2 PUSH1 0x0 ADD PUSH1 0x0 PUSH2 0x100 EXP DUP2 SLOAD DUP2 PUSH20 0xFFFFFFFFFFFFFFFFFFFFFFFFFFFFFFFFFFFFFFFF MUL NOT AND SWAP1 DUP4 PUSH20 0xFFFFFFFFFFFFFFFFFFFFFFFFFFFFFFFFFFFFFFFF AND MUL OR SWAP1 SSTORE POP PUSH1 0x20 DUP3 ADD MLOAD DUP2 PUSH1 0x1 ADD SSTORE PUSH1 0x40 DUP3 ADD MLOAD DUP2 PUSH1 0x2 ADD SSTORE PUSH1 0x60 DUP3 ADD MLOAD DUP2 PUSH1 0x3 ADD PUSH1 0x0 PUSH2 0x100 EXP DUP2 SLOAD DUP2 PUSH1 0xFF MUL NOT AND SWAP1 DUP4 ISZERO ISZERO MUL OR SWAP1 SSTORE POP SWAP1 POP POP PUSH2 0xF1D DUP4 PUSH2 0x57E JUMP JUMPDEST POP POP POP JUMP JUMPDEST PUSH1 0x0 DUP1 PUSH1 0x0 DUP1 PUSH1 0x0 DUP1 DUP8 PUSH1 0x40 MLOAD PUSH2 0xF39 SWAP2 SWAP1 PUSH2 0x1AB1 JUMP JUMPDEST SWAP1 DUP2 MSTORE PUSH1 0x20 ADD PUSH1 0x40 MLOAD DUP1 SWAP2 SUB SWAP1 KECCAK256 PUSH1 0x0 ADD DUP1 SLOAD PUSH2 0xF55 SWAP1 PUSH2 0x1F91 JUMP JUMPDEST SWAP1 POP GT PUSH2 0xF97 JUMPI PUSH1 0x40 MLOAD PUSH32 0x8C379A000000000000000000000000000000000000000000000000000000000 DUP2 MSTORE PUSH1 0x4 ADD PUSH2 0xF8E SWAP1 PUSH2 0x1C76 JUMP JUMPDEST PUSH1 0x40 MLOAD DUP1 SWAP2 SUB SWAP1 REVERT JUMPDEST PUSH1 0x0 DUP7 PUSH1 0x40 MLOAD PUSH2 0xFA7 SWAP2 SWAP1 PUSH2 0x1AB1 JUMP JUMPDEST SWAP1 DUP2 MSTORE PUSH1 0x20 ADD PUSH1 0x40 MLOAD DUP1 SWAP2 SUB SWAP1 KECCAK256 PUSH1 0x5 ADD DUP1 SLOAD SWAP1 POP DUP6 LT PUSH2 0xFFD JUMPI PUSH1 0x40 MLOAD PUSH32 0x8C379A000000000000000000000000000000000000000000000000000000000 DUP2 MSTORE PUSH1 0x4 ADD PUSH2 0xFF4 SWAP1 PUSH2 0x1C96 JUMP JUMPDEST PUSH1 0x40 MLOAD DUP1 SWAP2 SUB SWAP1 REVERT JUMPDEST PUSH1 0x0 DUP7 PUSH1 0x40 MLOAD PUSH2 0x100D SWAP2 SWAP1 PUSH2 0x1AB1 JUMP JUMPDEST SWAP1 DUP2 MSTORE PUSH1 0x20 ADD PUSH1 0x40 MLOAD DUP1 SWAP2 SUB SWAP1 KECCAK256 PUSH1 0x5 ADD DUP6 DUP2 SLOAD DUP2 LT PUSH2 0x1030 JUMPI PUSH2 0x102F PUSH2 0x20CA JUMP JUMPDEST JUMPDEST SWAP1 PUSH1 0x0 MSTORE PUSH1 0x20 PUSH1 0x0 KECCAK256 SWAP1 PUSH1 0x4 MUL ADD PUSH1 0x0 ADD PUSH1 0x0 SWAP1 SLOAD SWAP1 PUSH2 0x100 EXP SWAP1 DIV PUSH20 0xFFFFFFFFFFFFFFFFFFFFFFFFFFFFFFFFFFFFFFFF AND SWAP4 POP PUSH1 0x0 DUP7 PUSH1 0x40 MLOAD PUSH2 0x1074 SWAP2 SWAP1 PUSH2 0x1AB1 JUMP JUMPDEST SWAP1 DUP2 MSTORE PUSH1 0x20 ADD PUSH1 0x40 MLOAD DUP1 SWAP2 SUB SWAP1 KECCAK256 PUSH1 0x5 ADD DUP6 DUP2 SLOAD DUP2 LT PUSH2 0x1097 JUMPI PUSH2 0x1096 PUSH2 0x20CA JUMP JUMPDEST JUMPDEST SWAP1 PUSH1 0x0 MSTORE PUSH1 0x20 PUSH1 0x0 KECCAK256 SWAP1 PUSH1 0x4 MUL ADD PUSH1 0x1 ADD SLOAD SWAP3 POP PUSH1 0x0 DUP7 PUSH1 0x40 MLOAD PUSH2 0x10BB SWAP2 SWAP1 PUSH2 0x1AB1 JUMP JUMPDEST SWAP1 DUP2 MSTORE PUSH1 0x20 ADD PUSH1 0x40 MLOAD DUP1 SWAP2 SUB SWAP1 KECCAK256 PUSH1 0x5 ADD DUP6 DUP2 SLOAD DUP2 LT PUSH2 0x10DE JUMPI PUSH2 0x10DD PUSH2 0x20CA JUMP JUMPDEST JUMPDEST SWAP1 PUSH1 0x0 MSTORE PUSH1 0x20 PUSH1 0x0 KECCAK256 SWAP1 PUSH1 0x4 MUL ADD PUSH1 0x2 ADD SLOAD SWAP2 POP PUSH1 0x0 DUP7 PUSH1 0x40 MLOAD PUSH2 0x1102 SWAP2 SWAP1 PUSH2 0x1AB1 JUMP JUMPDEST SWAP1 DUP2 MSTORE PUSH1 0x20 ADD PUSH1 0x40 MLOAD DUP1 SWAP2 SUB SWAP1 KECCAK256 PUSH1 0x5 ADD DUP6 DUP2 SLOAD DUP2 LT PUSH2 0x1125 JUMPI PUSH2 0x1124 PUSH2 0x20CA JUMP JUMPDEST JUMPDEST SWAP1 PUSH1 0x0 MSTORE PUSH1 0x20 PUSH1 0x0 KECCAK256 SWAP1 PUSH1 0x4 MUL ADD PUSH1 0x3 ADD PUSH1 0x0 SWAP1 SLOAD SWAP1 PUSH2 0x100 EXP SWAP1 DIV PUSH1 0xFF AND SWAP1 POP SWAP3 SWAP6 SWAP2 SWAP5 POP SWAP3 POP JUMP JUMPDEST PUSH1 0x0 DUP1 PUSH1 0x0 DUP1 PUSH1 0x0 DUP1 DUP7 PUSH1 0x40 MLOAD PUSH2 0x1166 SWAP2 SWAP1 PUSH2 0x1AB1 JUMP JUMPDEST SWAP1 DUP2 MSTORE PUSH1 0x20 ADD PUSH1 0x40 MLOAD DUP1 SWAP2 SUB SWAP1 KECCAK256 PUSH1 0x0 ADD DUP1 SLOAD PUSH2 0x1182 SWAP1 PUSH2 0x1F91 JUMP JUMPDEST SWAP1 POP GT PUSH2 0x11C4 JUMPI PUSH1 0x40 MLOAD PUSH32 0x8C379A000000000000000000000000000000000000000000000000000000000 DUP2 MSTORE PUSH1 0x4 ADD PUSH2 0x11BB SWAP1 PUSH2 0x1C76 JUMP JUMPDEST PUSH1 0x40 MLOAD DUP1 SWAP2 SUB SWAP1 REVERT JUMPDEST PUSH1 0x0 DUP6 PUSH1 0x40 MLOAD PUSH2 0x11D4 SWAP2 SWAP1 PUSH2 0x1AB1 JUMP JUMPDEST SWAP1 DUP2 MSTORE PUSH1 0x20 ADD PUSH1 0x40 MLOAD DUP1 SWAP2 SUB SWAP1 KECCAK256 PUSH1 0x1 ADD PUSH1 0x0 ADD PUSH1 0x0 SWAP1 SLOAD SWAP1 PUSH2 0x100 EXP SWAP1 DIV PUSH20 0xFFFFFFFFFFFFFFFFFFFFFFFFFFFFFFFFFFFFFFFF AND SWAP4 POP PUSH1 0x0 DUP6 PUSH1 0x40 MLOAD PUSH2 0x121B SWAP2 SWAP1 PUSH2 0x1AB1 JUMP JUMPDEST SWAP1 DUP2 MSTORE PUSH1 0x20 ADD PUSH1 0x40 MLOAD DUP1 SWAP2 SUB SWAP1 KECCAK256 PUSH1 0x1 ADD PUSH1 0x1 ADD SLOAD SWAP3 POP PUSH1 0x0 DUP6 PUSH1 0x40 MLOAD PUSH2 0x1242 SWAP2 SWAP1 PUSH2 0x1AB1 JUMP JUMPDEST SWAP1 DUP2 MSTORE PUSH1 0x20 ADD PUSH1 0x40 MLOAD DUP1 SWAP2 SUB SWAP1 KECCAK256 PUSH1 0x1 ADD PUSH1 0x2 ADD SLOAD SWAP2 POP PUSH1 0x0 DUP6 PUSH1 0x40 MLOAD PUSH2 0x1269 SWAP2 SWAP1 PUSH2 0x1AB1 JUMP JUMPDEST SWAP1 DUP2 MSTORE PUSH1 0x20 ADD PUSH1 0x40 MLOAD DUP1 SWAP2 SUB SWAP1 KECCAK256 PUSH1 0x1 ADD PUSH1 0x3 ADD PUSH1 0x0 SWAP1 SLOAD SWAP1 PUSH2 0x100 EXP SWAP1 DIV PUSH1 0xFF AND SWAP1 POP SWAP2 SWAP4 POP SWAP2 SWAP4 JUMP JUMPDEST PUSH1 0x60 PUSH1 0x0 DUP1 PUSH1 0x0 DUP1 PUSH1 0x0 DUP1 PUSH1 0x0 DUP9 PUSH1 0x40 MLOAD PUSH2 0x12AF SWAP2 SWAP1 PUSH2 0x1AB1 JUMP JUMPDEST SWAP1 DUP2 MSTORE PUSH1 0x20 ADD PUSH1 0x40 MLOAD DUP1 SWAP2 SUB SWAP1 KECCAK256 PUSH1 0x0 ADD DUP1 SLOAD PUSH2 0x12CB SWAP1 PUSH2 0x1F91 JUMP JUMPDEST DUP1 PUSH1 0x1F ADD PUSH1 0x20 DUP1 SWAP2 DIV MUL PUSH1 0x20 ADD PUSH1 0x40 MLOAD SWAP1 DUP2 ADD PUSH1 0x40 MSTORE DUP1 SWAP3 SWAP2 SWAP1 DUP2 DUP2 MSTORE PUSH1 0x20 ADD DUP3 DUP1 SLOAD PUSH2 0x12F7 SWAP1 PUSH2 0x1F91 JUMP JUMPDEST DUP1 ISZERO PUSH2 0x1344 JUMPI DUP1 PUSH1 0x1F LT PUSH2 0x1319 JUMPI PUSH2 0x100 DUP1 DUP4 SLOAD DIV MUL DUP4 MSTORE SWAP2 PUSH1 0x20 ADD SWAP2 PUSH2 0x1344 JUMP JUMPDEST DUP3 ADD SWAP2 SWAP1 PUSH1 0x0 MSTORE PUSH1 0x20 PUSH1 0x0 KECCAK256 SWAP1 JUMPDEST DUP2 SLOAD DUP2 MSTORE SWAP1 PUSH1 0x1 ADD SWAP1 PUSH1 0x20 ADD DUP1 DUP4 GT PUSH2 0x1327 JUMPI DUP3 SWAP1 SUB PUSH1 0x1F AND DUP3 ADD SWAP2 JUMPDEST POP POP POP POP POP SWAP7 POP PUSH1 0x0 DUP9 PUSH1 0x40 MLOAD PUSH2 0x135B SWAP2 SWAP1 PUSH2 0x1AB1 JUMP JUMPDEST SWAP1 DUP2 MSTORE PUSH1 0x20 ADD PUSH1 0x40 MLOAD DUP1 SWAP2 SUB SWAP1 KECCAK256 PUSH1 0x1 ADD PUSH1 0x0 ADD PUSH1 0x0 SWAP1 SLOAD SWAP1 PUSH2 0x100 EXP SWAP1 DIV PUSH20 0xFFFFFFFFFFFFFFFFFFFFFFFFFFFFFFFFFFFFFFFF AND SWAP6 POP PUSH1 0x0 DUP9 PUSH1 0x40 MLOAD PUSH2 0x13A2 SWAP2 SWAP1 PUSH2 0x1AB1 JUMP JUMPDEST SWAP1 DUP2 MSTORE PUSH1 0x20 ADD PUSH1 0x40 MLOAD DUP1 SWAP2 SUB SWAP1 KECCAK256 PUSH1 0x1 ADD PUSH1 0x1 ADD SLOAD SWAP5 POP PUSH1 0x0 DUP9 PUSH1 0x40 MLOAD PUSH2 0x13C9 SWAP2 SWAP1 PUSH2 0x1AB1 JUMP JUMPDEST SWAP1 DUP2 MSTORE PUSH1 0x20 ADD PUSH1 0x40 MLOAD DUP1 SWAP2 SUB SWAP1 KECCAK256 PUSH1 0x1 ADD PUSH1 0x2 ADD SLOAD SWAP4 POP PUSH1 0x0 DUP9 PUSH1 0x40 MLOAD PUSH2 0x13F0 SWAP2 SWAP1 PUSH2 0x1AB1 JUMP JUMPDEST SWAP1 DUP2 MSTORE PUSH1 0x20 ADD PUSH1 0x40 MLOAD DUP1 SWAP2 SUB SWAP1 KECCAK256 PUSH1 0x6 ADD PUSH1 0x0 SWAP1 SLOAD SWAP1 PUSH2 0x100 EXP SWAP1 DIV PUSH1 0xFF AND SWAP3 POP PUSH1 0x0 DUP9 PUSH1 0x40 MLOAD PUSH2 0x1421 SWAP2 SWAP1 PUSH2 0x1AB1 JUMP JUMPDEST SWAP1 DUP2 MSTORE PUSH1 0x20 ADD PUSH1 0x40 MLOAD DUP1 SWAP2 SUB SWAP1 KECCAK256 PUSH1 0x7 ADD SLOAD SWAP2 POP PUSH1 0x0 DUP9 PUSH1 0x40 MLOAD PUSH2 0x1445 SWAP2 SWAP1 PUSH2 0x1AB1 JUMP JUMPDEST SWAP1 DUP2 MSTORE PUSH1 0x20 ADD PUSH1 0x40 MLOAD DUP1 SWAP2 SUB SWAP1 KECCAK256 PUSH1 0x8 ADD PUSH1 0x0 SWAP1 SLOAD SWAP1 PUSH2 0x100 EXP SWAP1 DIV PUSH20 0xFFFFFFFFFFFFFFFFFFFFFFFFFFFFFFFFFFFFFFFF AND SWAP1 POP SWAP2 SWAP4 SWAP6 SWAP8 SWAP1 SWAP3 SWAP5 SWAP7 POP JUMP JUMPDEST PUSH1 0x0 DUP1 DUP3 PUSH1 0x40 MLOAD PUSH2 0x1495 SWAP2 SWAP1 PUSH2 0x1AB1 JUMP JUMPDEST SWAP1 DUP2 MSTORE PUSH1 0x20 ADD PUSH1 0x40 MLOAD DUP1 SWAP2 SUB SWAP1 KECCAK256 PUSH1 0x1 ADD PUSH1 0x2 ADD SLOAD TIMESTAMP GT SWAP1 POP SWAP2 SWAP1 POP JUMP JUMPDEST PUSH1 0x60 PUSH1 0x0 DUP3 EQ ISZERO PUSH2 0x14FB JUMPI PUSH1 0x40 MLOAD DUP1 PUSH1 0x40 ADD PUSH1 0x40 MSTORE DUP1 PUSH1 0x1 DUP2 MSTORE PUSH1 0x20 ADD PUSH32 0x3000000000000000000000000000000000000000000000000000000000000000 DUP2 MSTORE POP SWAP1 POP PUSH2 0x1637 JUMP JUMPDEST PUSH1 0x0 DUP3 SWAP1 POP PUSH1 0x0 JUMPDEST PUSH1 0x0 DUP3 EQ PUSH2 0x152D JUMPI DUP1 DUP1 PUSH2 0x1516 SWAP1 PUSH2 0x1FF4 JUMP JUMPDEST SWAP2 POP POP PUSH1 0xA DUP3 PUSH2 0x1526 SWAP2 SWAP1 PUSH2 0x1E3B JUMP JUMPDEST SWAP2 POP PUSH2 0x1503 JUMP JUMPDEST PUSH1 0x0 DUP2 PUSH8 0xFFFFFFFFFFFFFFFF DUP2 GT ISZERO PUSH2 0x1549 JUMPI PUSH2 0x1548 PUSH2 0x20F9 JUMP JUMPDEST JUMPDEST PUSH1 0x40 MLOAD SWAP1 DUP1 DUP3 MSTORE DUP1 PUSH1 0x1F ADD PUSH1 0x1F NOT AND PUSH1 0x20 ADD DUP3 ADD PUSH1 0x40 MSTORE DUP1 ISZERO PUSH2 0x157B JUMPI DUP2 PUSH1 0x20 ADD PUSH1 0x1 DUP3 MUL DUP1 CALLDATASIZE DUP4 CALLDATACOPY DUP1 DUP3 ADD SWAP2 POP POP SWAP1 POP JUMPDEST POP SWAP1 POP PUSH1 0x0 DUP3 SWAP1 POP JUMPDEST PUSH1 0x0 DUP7 EQ PUSH2 0x162F JUMPI PUSH1 0x1 DUP2 PUSH2 0x1599 SWAP2 SWAP1 PUSH2 0x1EC6 JUMP JUMPDEST SWAP1 POP PUSH1 0x0 PUSH1 0xA DUP1 DUP9 PUSH2 0x15AB SWAP2 SWAP1 PUSH2 0x1E3B JUMP JUMPDEST PUSH2 0x15B5 SWAP2 SWAP1 PUSH2 0x1E6C JUMP JUMPDEST DUP8 PUSH2 0x15C0 SWAP2 SWAP1 PUSH2 0x1EC6 JUMP JUMPDEST PUSH1 0x30 PUSH2 0x15CC SWAP2 SWAP1 PUSH2 0x1E04 JUMP JUMPDEST SWAP1 POP PUSH1 0x0 DUP2 PUSH1 0xF8 SHL SWAP1 POP DUP1 DUP5 DUP5 DUP2 MLOAD DUP2 LT PUSH2 0x15EA JUMPI PUSH2 0x15E9 PUSH2 0x20CA JUMP JUMPDEST JUMPDEST PUSH1 0x20 ADD ADD SWAP1 PUSH31 0xFFFFFFFFFFFFFFFFFFFFFFFFFFFFFFFFFFFFFFFFFFFFFFFFFFFFFFFFFFFFFF NOT AND SWAP1 DUP2 PUSH1 0x0 BYTE SWAP1 MSTORE8 POP PUSH1 0xA DUP9 PUSH2 0x1626 SWAP2 SWAP1 PUSH2 0x1E3B JUMP JUMPDEST SWAP8 POP POP POP PUSH2 0x1584 JUMP JUMPDEST DUP2 SWAP5 POP POP POP POP POP JUMPDEST SWAP2 SWAP1 POP JUMP JUMPDEST PUSH1 0x60 DUP4 DUP4 DUP4 PUSH1 0x40 MLOAD PUSH1 0x20 ADD PUSH2 0x1653 SWAP4 SWAP3 SWAP2 SWAP1 PUSH2 0x1AC8 JUMP JUMPDEST PUSH1 0x40 MLOAD PUSH1 0x20 DUP2 DUP4 SUB SUB DUP2 MSTORE SWAP1 PUSH1 0x40 MSTORE SWAP1 POP SWAP4 SWAP3 POP POP POP JUMP JUMPDEST DUP3 DUP1 SLOAD PUSH2 0x1677 SWAP1 PUSH2 0x1F91 JUMP JUMPDEST SWAP1 PUSH1 0x0 MSTORE PUSH1 0x20 PUSH1 0x0 KECCAK256 SWAP1 PUSH1 0x1F ADD PUSH1 0x20 SWAP1 DIV DUP2 ADD SWAP3 DUP3 PUSH2 0x1699 JUMPI PUSH1 0x0 DUP6 SSTORE PUSH2 0x16E0 JUMP JUMPDEST DUP3 PUSH1 0x1F LT PUSH2 0x16B2 JUMPI DUP1 MLOAD PUSH1 0xFF NOT AND DUP4 DUP1 ADD OR DUP6 SSTORE PUSH2 0x16E0 JUMP JUMPDEST DUP3 DUP1 ADD PUSH1 0x1 ADD DUP6 SSTORE DUP3 ISZERO PUSH2 0x16E0 JUMPI SWAP2 DUP3 ADD JUMPDEST DUP3 DUP2 GT ISZERO PUSH2 0x16DF JUMPI DUP3 MLOAD DUP3 SSTORE SWAP2 PUSH1 0x20 ADD SWAP2 SWAP1 PUSH1 0x1 ADD SWAP1 PUSH2 0x16C4 JUMP JUMPDEST JUMPDEST POP SWAP1 POP PUSH2 0x16ED SWAP2 SWAP1 PUSH2 0x16F1 JUMP JUMPDEST POP SWAP1 JUMP JUMPDEST JUMPDEST DUP1 DUP3 GT ISZERO PUSH2 0x170A JUMPI PUSH1 0x0 DUP2 PUSH1 0x0 SWAP1 SSTORE POP PUSH1 0x1 ADD PUSH2 0x16F2 JUMP JUMPDEST POP SWAP1 JUMP JUMPDEST PUSH1 0x0 PUSH2 0x1721 PUSH2 0x171C DUP5 PUSH2 0x1D56 JUMP JUMPDEST PUSH2 0x1D31 JUMP JUMPDEST SWAP1 POP DUP3 DUP2 MSTORE PUSH1 0x20 DUP2 ADD DUP5 DUP5 DUP5 ADD GT ISZERO PUSH2 0x173D JUMPI PUSH2 0x173C PUSH2 0x212D JUMP JUMPDEST JUMPDEST PUSH2 0x1748 DUP5 DUP3 DUP6 PUSH2 0x1F4F JUMP JUMPDEST POP SWAP4 SWAP3 POP POP POP JUMP JUMPDEST PUSH1 0x0 DUP2 CALLDATALOAD SWAP1 POP PUSH2 0x175F DUP2 PUSH2 0x243D JUMP JUMPDEST SWAP3 SWAP2 POP POP JUMP JUMPDEST PUSH1 0x0 DUP3 PUSH1 0x1F DUP4 ADD SLT PUSH2 0x177A JUMPI PUSH2 0x1779 PUSH2 0x2128 JUMP JUMPDEST JUMPDEST DUP2 CALLDATALOAD PUSH2 0x178A DUP5 DUP3 PUSH1 0x20 DUP7 ADD PUSH2 0x170E JUMP JUMPDEST SWAP2 POP POP SWAP3 SWAP2 POP POP JUMP JUMPDEST PUSH1 0x0 DUP2 CALLDATALOAD SWAP1 POP PUSH2 0x17A2 DUP2 PUSH2 0x2454 JUMP JUMPDEST SWAP3 SWAP2 POP POP JUMP JUMPDEST PUSH1 0x0 PUSH1 0x20 DUP3 DUP5 SUB SLT ISZERO PUSH2 0x17BE JUMPI PUSH2 0x17BD PUSH2 0x2137 JUMP JUMPDEST JUMPDEST PUSH1 0x0 DUP3 ADD CALLDATALOAD PUSH8 0xFFFFFFFFFFFFFFFF DUP2 GT ISZERO PUSH2 0x17DC JUMPI PUSH2 0x17DB PUSH2 0x2132 JUMP JUMPDEST JUMPDEST PUSH2 0x17E8 DUP5 DUP3 DUP6 ADD PUSH2 0x1765 JUMP JUMPDEST SWAP2 POP POP SWAP3 SWAP2 POP POP JUMP JUMPDEST PUSH1 0x0 DUP1 PUSH1 0x40 DUP4 DUP6 SUB SLT ISZERO PUSH2 0x1808 JUMPI PUSH2 0x1807 PUSH2 0x2137 JUMP JUMPDEST JUMPDEST PUSH1 0x0 DUP4 ADD CALLDATALOAD PUSH8 0xFFFFFFFFFFFFFFFF DUP2 GT ISZERO PUSH2 0x1826 JUMPI PUSH2 0x1825 PUSH2 0x2132 JUMP JUMPDEST JUMPDEST PUSH2 0x1832 DUP6 DUP3 DUP7 ADD PUSH2 0x1765 JUMP JUMPDEST SWAP3 POP POP PUSH1 0x20 PUSH2 0x1843 DUP6 DUP3 DUP7 ADD PUSH2 0x1793 JUMP JUMPDEST SWAP2 POP POP SWAP3 POP SWAP3 SWAP1 POP JUMP JUMPDEST PUSH1 0x0 DUP1 PUSH1 0x0 PUSH1 0x60 DUP5 DUP7 SUB SLT ISZERO PUSH2 0x1866 JUMPI PUSH2 0x1865 PUSH2 0x2137 JUMP JUMPDEST JUMPDEST PUSH1 0x0 DUP5 ADD CALLDATALOAD PUSH8 0xFFFFFFFFFFFFFFFF DUP2 GT ISZERO PUSH2 0x1884 JUMPI PUSH2 0x1883 PUSH2 0x2132 JUMP JUMPDEST JUMPDEST PUSH2 0x1890 DUP7 DUP3 DUP8 ADD PUSH2 0x1765 JUMP JUMPDEST SWAP4 POP POP PUSH1 0x20 PUSH2 0x18A1 DUP7 DUP3 DUP8 ADD PUSH2 0x1793 JUMP JUMPDEST SWAP3 POP POP PUSH1 0x40 PUSH2 0x18B2 DUP7 DUP3 DUP8 ADD PUSH2 0x1750 JUMP JUMPDEST SWAP2 POP POP SWAP3 POP SWAP3 POP SWAP3 JUMP JUMPDEST PUSH2 0x18C5 DUP2 PUSH2 0x1EFA JUMP JUMPDEST DUP3 MSTORE POP POP JUMP JUMPDEST PUSH2 0x18D4 DUP2 PUSH2 0x1F0C JUMP JUMPDEST DUP3 MSTORE POP POP JUMP JUMPDEST PUSH1 0x0 PUSH2 0x18E5 DUP3 PUSH2 0x1D87 JUMP JUMPDEST PUSH2 0x18EF DUP2 DUP6 PUSH2 0x1D92 JUMP JUMPDEST SWAP4 POP PUSH2 0x18FF DUP2 DUP6 PUSH1 0x20 DUP7 ADD PUSH2 0x1F5E JUMP JUMPDEST PUSH2 0x1908 DUP2 PUSH2 0x213C JUMP JUMPDEST DUP5 ADD SWAP2 POP POP SWAP3 SWAP2 POP POP JUMP JUMPDEST PUSH1 0x0 PUSH2 0x191E DUP3 PUSH2 0x1D87 JUMP JUMPDEST PUSH2 0x1928 DUP2 DUP6 PUSH2 0x1DA3 JUMP JUMPDEST SWAP4 POP PUSH2 0x1938 DUP2 DUP6 PUSH1 0x20 DUP7 ADD PUSH2 0x1F5E JUMP JUMPDEST DUP1 DUP5 ADD SWAP2 POP POP SWAP3 SWAP2 POP POP JUMP JUMPDEST PUSH1 0x0 PUSH2 0x1951 PUSH1 0x17 DUP4 PUSH2 0x1D92 JUMP JUMPDEST SWAP2 POP PUSH2 0x195C DUP3 PUSH2 0x214D JUMP JUMPDEST PUSH1 0x20 DUP3 ADD SWAP1 POP SWAP2 SWAP1 POP JUMP JUMPDEST PUSH1 0x0 PUSH2 0x1974 PUSH1 0x36 DUP4 PUSH2 0x1D92 JUMP JUMPDEST SWAP2 POP PUSH2 0x197F DUP3 PUSH2 0x2176 JUMP JUMPDEST PUSH1 0x40 DUP3 ADD SWAP1 POP SWAP2 SWAP1 POP JUMP JUMPDEST PUSH1 0x0 PUSH2 0x1997 PUSH1 0x30 DUP4 PUSH2 0x1D92 JUMP JUMPDEST SWAP2 POP PUSH2 0x19A2 DUP3 PUSH2 0x21C5 JUMP JUMPDEST PUSH1 0x40 DUP3 ADD SWAP1 POP SWAP2 SWAP1 POP JUMP JUMPDEST PUSH1 0x0 PUSH2 0x19BA PUSH1 0x2E DUP4 PUSH2 0x1D92 JUMP JUMPDEST SWAP2 POP PUSH2 0x19C5 DUP3 PUSH2 0x2214 JUMP JUMPDEST PUSH1 0x40 DUP3 ADD SWAP1 POP SWAP2 SWAP1 POP JUMP JUMPDEST PUSH1 0x0 PUSH2 0x19DD PUSH1 0x2D DUP4 PUSH2 0x1D92 JUMP JUMPDEST SWAP2 POP PUSH2 0x19E8 DUP3 PUSH2 0x2263 JUMP JUMPDEST PUSH1 0x40 DUP3 ADD SWAP1 POP SWAP2 SWAP1 POP JUMP JUMPDEST PUSH1 0x0 PUSH2 0x1A00 PUSH1 0x21 DUP4 PUSH2 0x1D92 JUMP JUMPDEST SWAP2 POP PUSH2 0x1A0B DUP3 PUSH2 0x22B2 JUMP JUMPDEST PUSH1 0x40 DUP3 ADD SWAP1 POP SWAP2 SWAP1 POP JUMP JUMPDEST PUSH1 0x0 PUSH2 0x1A23 PUSH1 0x2B DUP4 PUSH2 0x1D92 JUMP JUMPDEST SWAP2 POP PUSH2 0x1A2E DUP3 PUSH2 0x2301 JUMP JUMPDEST PUSH1 0x40 DUP3 ADD SWAP1 POP SWAP2 SWAP1 POP JUMP JUMPDEST PUSH1 0x0 PUSH2 0x1A46 PUSH1 0x1F DUP4 PUSH2 0x1D92 JUMP JUMPDEST SWAP2 POP PUSH2 0x1A51 DUP3 PUSH2 0x2350 JUMP JUMPDEST PUSH1 0x20 DUP3 ADD SWAP1 POP SWAP2 SWAP1 POP JUMP JUMPDEST PUSH1 0x0 PUSH2 0x1A69 PUSH1 0x32 DUP4 PUSH2 0x1D92 JUMP JUMPDEST SWAP2 POP PUSH2 0x1A74 DUP3 PUSH2 0x2379 JUMP JUMPDEST PUSH1 0x40 DUP3 ADD SWAP1 POP SWAP2 SWAP1 POP JUMP JUMPDEST PUSH1 0x0 PUSH2 0x1A8C PUSH1 0x48 DUP4 PUSH2 0x1D92 JUMP JUMPDEST SWAP2 POP PUSH2 0x1A97 DUP3 PUSH2 0x23C8 JUMP JUMPDEST PUSH1 0x60 DUP3 ADD SWAP1 POP SWAP2 SWAP1 POP JUMP JUMPDEST PUSH2 0x1AAB DUP2 PUSH2 0x1F38 JUMP JUMPDEST DUP3 MSTORE POP POP JUMP JUMPDEST PUSH1 0x0 PUSH2 0x1ABD DUP3 DUP5 PUSH2 0x1913 JUMP JUMPDEST SWAP2 POP DUP2 SWAP1 POP SWAP3 SWAP2 POP POP JUMP JUMPDEST PUSH1 0x0 PUSH2 0x1AD4 DUP3 DUP7 PUSH2 0x1913 JUMP JUMPDEST SWAP2 POP PUSH2 0x1AE0 DUP3 DUP6 PUSH2 0x1913 JUMP JUMPDEST SWAP2 POP PUSH2 0x1AEC DUP3 DUP5 PUSH2 0x1913 JUMP JUMPDEST SWAP2 POP DUP2 SWAP1 POP SWAP5 SWAP4 POP POP POP POP JUMP JUMPDEST PUSH1 0x0 PUSH1 0x80 DUP3 ADD SWAP1 POP PUSH2 0x1B0E PUSH1 0x0 DUP4 ADD DUP8 PUSH2 0x18BC JUMP JUMPDEST PUSH2 0x1B1B PUSH1 0x20 DUP4 ADD DUP7 PUSH2 0x1AA2 JUMP JUMPDEST PUSH2 0x1B28 PUSH1 0x40 DUP4 ADD DUP6 PUSH2 0x1AA2 JUMP JUMPDEST PUSH2 0x1B35 PUSH1 0x60 DUP4 ADD DUP5 PUSH2 0x18CB JUMP JUMPDEST SWAP6 SWAP5 POP POP POP POP POP JUMP JUMPDEST PUSH1 0x0 PUSH1 0x20 DUP3 ADD SWAP1 POP DUP2 DUP2 SUB PUSH1 0x0 DUP4 ADD MSTORE PUSH2 0x1B58 DUP2 DUP5 PUSH2 0x18DA JUMP JUMPDEST SWAP1 POP SWAP3 SWAP2 POP POP JUMP JUMPDEST PUSH1 0x0 PUSH1 0xE0 DUP3 ADD SWAP1 POP DUP2 DUP2 SUB PUSH1 0x0 DUP4 ADD MSTORE PUSH2 0x1B7A DUP2 DUP11 PUSH2 0x18DA JUMP JUMPDEST SWAP1 POP PUSH2 0x1B89 PUSH1 0x20 DUP4 ADD DUP10 PUSH2 0x18BC JUMP JUMPDEST PUSH2 0x1B96 PUSH1 0x40 DUP4 ADD DUP9 PUSH2 0x1AA2 JUMP JUMPDEST PUSH2 0x1BA3 PUSH1 0x60 DUP4 ADD DUP8 PUSH2 0x1AA2 JUMP JUMPDEST PUSH2 0x1BB0 PUSH1 0x80 DUP4 ADD DUP7 PUSH2 0x18CB JUMP JUMPDEST PUSH2 0x1BBD PUSH1 0xA0 DUP4 ADD DUP6 PUSH2 0x1AA2 JUMP JUMPDEST PUSH2 0x1BCA PUSH1 0xC0 DUP4 ADD DUP5 PUSH2 0x18BC JUMP JUMPDEST SWAP9 SWAP8 POP POP POP POP POP POP POP POP JUMP JUMPDEST PUSH1 0x0 PUSH1 0x20 DUP3 ADD SWAP1 POP DUP2 DUP2 SUB PUSH1 0x0 DUP4 ADD MSTORE PUSH2 0x1BEF DUP2 PUSH2 0x1944 JUMP JUMPDEST SWAP1 POP SWAP2 SWAP1 POP JUMP JUMPDEST PUSH1 0x0 PUSH1 0x20 DUP3 ADD SWAP1 POP DUP2 DUP2 SUB PUSH1 0x0 DUP4 ADD MSTORE PUSH2 0x1C0F DUP2 PUSH2 0x1967 JUMP JUMPDEST SWAP1 POP SWAP2 SWAP1 POP JUMP JUMPDEST PUSH1 0x0 PUSH1 0x20 DUP3 ADD SWAP1 POP DUP2 DUP2 SUB PUSH1 0x0 DUP4 ADD MSTORE PUSH2 0x1C2F DUP2 PUSH2 0x198A JUMP JUMPDEST SWAP1 POP SWAP2 SWAP1 POP JUMP JUMPDEST PUSH1 0x0 PUSH1 0x20 DUP3 ADD SWAP1 POP DUP2 DUP2 SUB PUSH1 0x0 DUP4 ADD MSTORE PUSH2 0x1C4F DUP2 PUSH2 0x19AD JUMP JUMPDEST SWAP1 POP SWAP2 SWAP1 POP JUMP JUMPDEST PUSH1 0x0 PUSH1 0x20 DUP3 ADD SWAP1 POP DUP2 DUP2 SUB PUSH1 0x0 DUP4 ADD MSTORE PUSH2 0x1C6F DUP2 PUSH2 0x19D0 JUMP JUMPDEST SWAP1 POP SWAP2 SWAP1 POP JUMP JUMPDEST PUSH1 0x0 PUSH1 0x20 DUP3 ADD SWAP1 POP DUP2 DUP2 SUB PUSH1 0x0 DUP4 ADD MSTORE PUSH2 0x1C8F DUP2 PUSH2 0x19F3 JUMP JUMPDEST SWAP1 POP SWAP2 SWAP1 POP JUMP JUMPDEST PUSH1 0x0 PUSH1 0x20 DUP3 ADD SWAP1 POP DUP2 DUP2 SUB PUSH1 0x0 DUP4 ADD MSTORE PUSH2 0x1CAF DUP2 PUSH2 0x1A16 JUMP JUMPDEST SWAP1 POP SWAP2 SWAP1 POP JUMP JUMPDEST PUSH1 0x0 PUSH1 0x20 DUP3 ADD SWAP1 POP DUP2 DUP2 SUB PUSH1 0x0 DUP4 ADD MSTORE PUSH2 0x1CCF DUP2 PUSH2 0x1A39 JUMP JUMPDEST SWAP1 POP SWAP2 SWAP1 POP JUMP JUMPDEST PUSH1 0x0 PUSH1 0x20 DUP3 ADD SWAP1 POP DUP2 DUP2 SUB PUSH1 0x0 DUP4 ADD MSTORE PUSH2 0x1CEF DUP2 PUSH2 0x1A5C JUMP JUMPDEST SWAP1 POP SWAP2 SWAP1 POP JUMP JUMPDEST PUSH1 0x0 PUSH1 0x20 DUP3 ADD SWAP1 POP DUP2 DUP2 SUB PUSH1 0x0 DUP4 ADD MSTORE PUSH2 0x1D0F DUP2 PUSH2 0x1A7F JUMP JUMPDEST SWAP1 POP SWAP2 SWAP1 POP JUMP JUMPDEST PUSH1 0x0 PUSH1 0x20 DUP3 ADD SWAP1 POP PUSH2 0x1D2B PUSH1 0x0 DUP4 ADD DUP5 PUSH2 0x1AA2 JUMP JUMPDEST SWAP3 SWAP2 POP POP JUMP JUMPDEST PUSH1 0x0 PUSH2 0x1D3B PUSH2 0x1D4C JUMP JUMPDEST SWAP1 POP PUSH2 0x1D47 DUP3 DUP3 PUSH2 0x1FC3 JUMP JUMPDEST SWAP2 SWAP1 POP JUMP JUMPDEST PUSH1 0x0 PUSH1 0x40 MLOAD SWAP1 POP SWAP1 JUMP JUMPDEST PUSH1 0x0 PUSH8 0xFFFFFFFFFFFFFFFF DUP3 GT ISZERO PUSH2 0x1D71 JUMPI PUSH2 0x1D70 PUSH2 0x20F9 JUMP JUMPDEST JUMPDEST PUSH2 0x1D7A DUP3 PUSH2 0x213C JUMP JUMPDEST SWAP1 POP PUSH1 0x20 DUP2 ADD SWAP1 POP SWAP2 SWAP1 POP JUMP JUMPDEST PUSH1 0x0 DUP2 MLOAD SWAP1 POP SWAP2 SWAP1 POP JUMP JUMPDEST PUSH1 0x0 DUP3 DUP3 MSTORE PUSH1 0x20 DUP3 ADD SWAP1 POP SWAP3 SWAP2 POP POP JUMP JUMPDEST PUSH1 0x0 DUP2 SWAP1 POP SWAP3 SWAP2 POP POP JUMP JUMPDEST PUSH1 0x0 PUSH2 0x1DB9 DUP3 PUSH2 0x1F38 JUMP JUMPDEST SWAP2 POP PUSH2 0x1DC4 DUP4 PUSH2 0x1F38 JUMP JUMPDEST SWAP3 POP DUP3 PUSH32 0xFFFFFFFFFFFFFFFFFFFFFFFFFFFFFFFFFFFFFFFFFFFFFFFFFFFFFFFFFFFFFFFF SUB DUP3 GT ISZERO PUSH2 0x1DF9 JUMPI PUSH2 0x1DF8 PUSH2 0x203D JUMP JUMPDEST JUMPDEST DUP3 DUP3 ADD SWAP1 POP SWAP3 SWAP2 POP POP JUMP JUMPDEST PUSH1 0x0 PUSH2 0x1E0F DUP3 PUSH2 0x1F42 JUMP JUMPDEST SWAP2 POP PUSH2 0x1E1A DUP4 PUSH2 0x1F42 JUMP JUMPDEST SWAP3 POP DUP3 PUSH1 0xFF SUB DUP3 GT ISZERO PUSH2 0x1E30 JUMPI PUSH2 0x1E2F PUSH2 0x203D JUMP JUMPDEST JUMPDEST DUP3 DUP3 ADD SWAP1 POP SWAP3 SWAP2 POP POP JUMP JUMPDEST PUSH1 0x0 PUSH2 0x1E46 DUP3 PUSH2 0x1F38 JUMP JUMPDEST SWAP2 POP PUSH2 0x1E51 DUP4 PUSH2 0x1F38 JUMP JUMPDEST SWAP3 POP DUP3 PUSH2 0x1E61 JUMPI PUSH2 0x1E60 PUSH2 0x206C JUMP JUMPDEST JUMPDEST DUP3 DUP3 DIV SWAP1 POP SWAP3 SWAP2 POP POP JUMP JUMPDEST PUSH1 0x0 PUSH2 0x1E77 DUP3 PUSH2 0x1F38 JUMP JUMPDEST SWAP2 POP PUSH2 0x1E82 DUP4 PUSH2 0x1F38 JUMP JUMPDEST SWAP3 POP DUP2 PUSH32 0xFFFFFFFFFFFFFFFFFFFFFFFFFFFFFFFFFFFFFFFFFFFFFFFFFFFFFFFFFFFFFFFF DIV DUP4 GT DUP3 ISZERO ISZERO AND ISZERO PUSH2 0x1EBB JUMPI PUSH2 0x1EBA PUSH2 0x203D JUMP JUMPDEST JUMPDEST DUP3 DUP3 MUL SWAP1 POP SWAP3 SWAP2 POP POP JUMP JUMPDEST PUSH1 0x0 PUSH2 0x1ED1 DUP3 PUSH2 0x1F38 JUMP JUMPDEST SWAP2 POP PUSH2 0x1EDC DUP4 PUSH2 0x1F38 JUMP JUMPDEST SWAP3 POP DUP3 DUP3 LT ISZERO PUSH2 0x1EEF JUMPI PUSH2 0x1EEE PUSH2 0x203D JUMP JUMPDEST JUMPDEST DUP3 DUP3 SUB SWAP1 POP SWAP3 SWAP2 POP POP JUMP JUMPDEST PUSH1 0x0 PUSH2 0x1F05 DUP3 PUSH2 0x1F18 JUMP JUMPDEST SWAP1 POP SWAP2 SWAP1 POP JUMP JUMPDEST PUSH1 0x0 DUP2 ISZERO ISZERO SWAP1 POP SWAP2 SWAP1 POP JUMP JUMPDEST PUSH1 0x0 PUSH20 0xFFFFFFFFFFFFFFFFFFFFFFFFFFFFFFFFFFFFFFFF DUP3 AND SWAP1 POP SWAP2 SWAP1 POP JUMP JUMPDEST PUSH1 0x0 DUP2 SWAP1 POP SWAP2 SWAP1 POP JUMP JUMPDEST PUSH1 0x0 PUSH1 0xFF DUP3 AND SWAP1 POP SWAP2 SWAP1 POP JUMP JUMPDEST DUP3 DUP2 DUP4 CALLDATACOPY PUSH1 0x0 DUP4 DUP4 ADD MSTORE POP POP POP JUMP JUMPDEST PUSH1 0x0 JUMPDEST DUP4 DUP2 LT ISZERO PUSH2 0x1F7C JUMPI DUP1 DUP3 ADD MLOAD DUP2 DUP5 ADD MSTORE PUSH1 0x20 DUP2 ADD SWAP1 POP PUSH2 0x1F61 JUMP JUMPDEST DUP4 DUP2 GT ISZERO PUSH2 0x1F8B JUMPI PUSH1 0x0 DUP5 DUP5 ADD MSTORE JUMPDEST POP POP POP POP JUMP JUMPDEST PUSH1 0x0 PUSH1 0x2 DUP3 DIV SWAP1 POP PUSH1 0x1 DUP3 AND DUP1 PUSH2 0x1FA9 JUMPI PUSH1 0x7F DUP3 AND SWAP2 POP JUMPDEST PUSH1 0x20 DUP3 LT DUP2 EQ ISZERO PUSH2 0x1FBD JUMPI PUSH2 0x1FBC PUSH2 0x209B JUMP JUMPDEST JUMPDEST POP SWAP2 SWAP1 POP JUMP JUMPDEST PUSH2 0x1FCC DUP3 PUSH2 0x213C JUMP JUMPDEST DUP2 ADD DUP2 DUP2 LT PUSH8 0xFFFFFFFFFFFFFFFF DUP3 GT OR ISZERO PUSH2 0x1FEB JUMPI PUSH2 0x1FEA PUSH2 0x20F9 JUMP JUMPDEST JUMPDEST DUP1 PUSH1 0x40 MSTORE POP POP POP JUMP JUMPDEST PUSH1 0x0 PUSH2 0x1FFF DUP3 PUSH2 0x1F38 JUMP JUMPDEST SWAP2 POP PUSH32 0xFFFFFFFFFFFFFFFFFFFFFFFFFFFFFFFFFFFFFFFFFFFFFFFFFFFFFFFFFFFFFFFF DUP3 EQ ISZERO PUSH2 0x2032 JUMPI PUSH2 0x2031 PUSH2 0x203D JUMP JUMPDEST JUMPDEST PUSH1 0x1 DUP3 ADD SWAP1 POP SWAP2 SWAP1 POP JUMP JUMPDEST PUSH32 0x4E487B7100000000000000000000000000000000000000000000000000000000 PUSH1 0x0 MSTORE PUSH1 0x11 PUSH1 0x4 MSTORE PUSH1 0x24 PUSH1 0x0 REVERT JUMPDEST PUSH32 0x4E487B7100000000000000000000000000000000000000000000000000000000 PUSH1 0x0 MSTORE PUSH1 0x12 PUSH1 0x4 MSTORE PUSH1 0x24 PUSH1 0x0 REVERT JUMPDEST PUSH32 0x4E487B7100000000000000000000000000000000000000000000000000000000 PUSH1 0x0 MSTORE PUSH1 0x22 PUSH1 0x4 MSTORE PUSH1 0x24 PUSH1 0x0 REVERT JUMPDEST PUSH32 0x4E487B7100000000000000000000000000000000000000000000000000000000 PUSH1 0x0 MSTORE PUSH1 0x32 PUSH1 0x4 MSTORE PUSH1 0x24 PUSH1 0x0 REVERT JUMPDEST PUSH32 0x4E487B7100000000000000000000000000000000000000000000000000000000 PUSH1 0x0 MSTORE PUSH1 0x41 PUSH1 0x4 MSTORE PUSH1 0x24 PUSH1 0x0 REVERT JUMPDEST PUSH1 0x0 DUP1 REVERT JUMPDEST PUSH1 0x0 DUP1 REVERT JUMPDEST PUSH1 0x0 DUP1 REVERT JUMPDEST PUSH1 0x0 DUP1 REVERT JUMPDEST PUSH1 0x0 PUSH1 0x1F NOT PUSH1 0x1F DUP4 ADD AND SWAP1 POP SWAP2 SWAP1 POP JUMP JUMPDEST PUSH32 0x596F75206D757374207365617263682061207465726D21000000000000000000 PUSH1 0x0 DUP3 ADD MSTORE POP JUMP JUMPDEST PUSH32 0x54686520636F707972696768742068617320612063757272656E74206F776E65 PUSH1 0x0 DUP3 ADD MSTORE PUSH32 0x7220616E64206973206E6F7420666F722073616C652100000000000000000000 PUSH1 0x20 DUP3 ADD MSTORE POP JUMP JUMPDEST PUSH32 0x596F7520617265206E6F74207468652063757272656E74206F776E6572206F66 PUSH1 0x0 DUP3 ADD MSTORE PUSH32 0x207468697320636F707972696768742100000000000000000000000000000000 PUSH1 0x20 DUP3 ADD MSTORE POP JUMP JUMPDEST PUSH32 0x497420636F73747320363020457468657220746F2062757920616E2065787069 PUSH1 0x0 DUP3 ADD MSTORE PUSH32 0x72656420636F7079726967687421000000000000000000000000000000000000 PUSH1 0x20 DUP3 ADD MSTORE POP JUMP JUMPDEST PUSH32 0x596F752063616E27742073656C6C206120636F70797269676874207768696368 PUSH1 0x0 DUP3 ADD MSTORE PUSH32 0x2069736E277420796F7572732100000000000000000000000000000000000000 PUSH1 0x20 DUP3 ADD MSTORE POP JUMP JUMPDEST PUSH32 0x5468697320636F7079726967687420686173206E6F20686F6C64657220796574 PUSH1 0x0 DUP3 ADD MSTORE PUSH32 0x2100000000000000000000000000000000000000000000000000000000000000 PUSH1 0x20 DUP3 ADD MSTORE POP JUMP JUMPDEST PUSH32 0x54686572652773206E6F2070726576696F757320686F6C646572207769746820 PUSH1 0x0 DUP3 ADD MSTORE PUSH32 0x7468697320696E64657821000000000000000000000000000000000000000000 PUSH1 0x20 DUP3 ADD MSTORE POP JUMP JUMPDEST PUSH32 0x596F7520616C7265616479206F776E207468697320636F707972696768742100 PUSH1 0x0 DUP3 ADD MSTORE POP JUMP JUMPDEST PUSH32 0x497420636F737473203520457468657220746F2073657420757020612073616C PUSH1 0x0 DUP3 ADD MSTORE PUSH32 0x6520666F72206120636F70797269676874210000000000000000000000000000 PUSH1 0x20 DUP3 ADD MSTORE POP JUMP JUMPDEST PUSH32 0x54686520636F7079726967687420697320666F722073616C652C206275742069 PUSH1 0x0 DUP3 ADD MSTORE PUSH32 0x7420686173206265656E20726573657276656420666F7220616E6F7468657220 PUSH1 0x20 DUP3 ADD MSTORE PUSH32 0x6164647265737321000000000000000000000000000000000000000000000000 PUSH1 0x40 DUP3 ADD MSTORE POP JUMP JUMPDEST PUSH2 0x2446 DUP2 PUSH2 0x1EFA JUMP JUMPDEST DUP2 EQ PUSH2 0x2451 JUMPI PUSH1 0x0 DUP1 REVERT JUMPDEST POP JUMP JUMPDEST PUSH2 0x245D DUP2 PUSH2 0x1F38 JUMP JUMPDEST DUP2 EQ PUSH2 0x2468 JUMPI PUSH1 0x0 DUP1 REVERT JUMPDEST POP JUMP INVALID SLOAD PUSH9 0x697320636F70797269 PUSH8 0x6874206973206265 PUSH10 0x6E6720736F6C6420666F PUSH19 0x20497420636F73747320312045746865722070 PUSH6 0x722064617920 PUSH21 0x6F206275792061206E657720636F70797269676874 0x21 KECCAK256 0x28 NUMBER PUSH22 0x7272656E742050726963653A20A26469706673582212 KECCAK256 STOP GT 0x5D SWAP8 0xA8 STOP 0xB0 SWAP13 PUSH29 0x10B5B40B00E52DD973524059D22152B05F6345C293CC0F64736F6C6343 STOP ADDMOD SMOD STOP CALLER "
		},
		"gasEstimates": {
			"creation": {
				"codeDepositCost": "1895000",
				"executionCost": "2005",
				"totalCost": "1897005"
			},
			"external": {
				"buyCopyright(string,uint256)": "infinite",
				"cancelSale(string)": "infinite",
				"checkCopyright(string)": "infinite",
				"getCurrentHolder(string)": "infinite",
				"getPreviousHolder(string,uint256)": "infinite",
				"numberOfPreviousHolders(string)": "infinite",
				"sellCopyright(string,uint256)": "infinite",
				"sellCopyrightToAddress(string,uint256,address)": "infinite"
			},
			"internal": {
				"isExpired(string memory)": "infinite"
			}
		},
		"methodIdentifiers": {
			"buyCopyright(string,uint256)": "851bd33c",
			"cancelSale(string)": "2977f78a",
			"checkCopyright(string)": "c2c3bfa9",
			"getCurrentHolder(string)": "bfca9c37",
			"getPreviousHolder(string,uint256)": "a4e773d6",
			"numberOfPreviousHolders(string)": "30cf1769",
			"sellCopyright(string,uint256)": "07d81fb8",
			"sellCopyrightToAddress(string,uint256,address)": "0b1cea45"
		}
	},
	"abi": [
		{
			"inputs": [
				{
					"internalType": "string",
					"name": "term",
					"type": "string"
				},
				{
					"internalType": "uint256",
					"name": "durationDays",
					"type": "uint256"
				}
			],
			"name": "buyCopyright",
			"outputs": [],
			"stateMutability": "payable",
			"type": "function"
		},
		{
			"inputs": [
				{
					"internalType": "string",
					"name": "term",
					"type": "string"
				}
			],
			"name": "cancelSale",
			"outputs": [],
			"stateMutability": "nonpayable",
			"type": "function"
		},
		{
			"inputs": [
				{
					"internalType": "string",
					"name": "term",
					"type": "string"
				}
			],
			"name": "checkCopyright",
			"outputs": [
				{
					"internalType": "string",
					"name": "copyrightedTerm",
					"type": "string"
				},
				{
					"internalType": "address",
					"name": "currentHolderAddress",
					"type": "address"
				},
				{
					"internalType": "uint256",
					"name": "creationDate",
					"type": "uint256"
				},
				{
					"internalType": "uint256",
					"name": "expirationDate",
					"type": "uint256"
				},
				{
					"internalType": "bool",
					"name": "forSale",
					"type": "bool"
				},
				{
					"internalType": "uint256",
					"name": "price",
					"type": "uint256"
				},
				{
					"internalType": "address",
					"name": "specificBuyer",
					"type": "address"
				}
			],
			"stateMutability": "view",
			"type": "function"
		},
		{
			"inputs": [
				{
					"internalType": "string",
					"name": "term",
					"type": "string"
				}
			],
			"name": "getCurrentHolder",
			"outputs": [
				{
					"internalType": "address",
					"name": "holder",
					"type": "address"
				},
				{
					"internalType": "uint256",
					"name": "creationDate",
					"type": "uint256"
				},
				{
					"internalType": "uint256",
					"name": "expirationDate",
					"type": "uint256"
				},
				{
					"internalType": "bool",
					"name": "wasSold",
					"type": "bool"
				}
			],
			"stateMutability": "view",
			"type": "function"
		},
		{
			"inputs": [
				{
					"internalType": "string",
					"name": "term",
					"type": "string"
				},
				{
					"internalType": "uint256",
					"name": "holderIndex",
					"type": "uint256"
				}
			],
			"name": "getPreviousHolder",
			"outputs": [
				{
					"internalType": "address",
					"name": "previousHolder",
					"type": "address"
				},
				{
					"internalType": "uint256",
					"name": "creationDate",
					"type": "uint256"
				},
				{
					"internalType": "uint256",
					"name": "expirationDate",
					"type": "uint256"
				},
				{
					"internalType": "bool",
					"name": "wasSold",
					"type": "bool"
				}
			],
			"stateMutability": "view",
			"type": "function"
		},
		{
			"inputs": [
				{
					"internalType": "string",
					"name": "term",
					"type": "string"
				}
			],
			"name": "numberOfPreviousHolders",
			"outputs": [
				{
					"internalType": "uint256",
					"name": "previousHolders",
					"type": "uint256"
				}
			],
			"stateMutability": "view",
			"type": "function"
		},
		{
			"inputs": [
				{
					"internalType": "string",
					"name": "term",
					"type": "string"
				},
				{
					"internalType": "uint256",
					"name": "price",
					"type": "uint256"
				}
			],
			"name": "sellCopyright",
			"outputs": [],
			"stateMutability": "payable",
			"type": "function"
		},
		{
			"inputs": [
				{
					"internalType": "string",
					"name": "term",
					"type": "string"
				},
				{
					"internalType": "uint256",
					"name": "price",
					"type": "uint256"
				},
				{
					"internalType": "address",
					"name": "specificBuyer",
					"type": "address"
				}
			],
			"name": "sellCopyrightToAddress",
			"outputs": [],
			"stateMutability": "payable",
			"type": "function"
		}
	]
}